:020000040800F2
:10000000B81700205D0100086501000867010008BD
:10001000690100086B0100086D0100080000000084
:100020000000000000000000000000006F01000858
:10003000710100080000000073010008D5220008CB
:100040007701000877010008770100080000000030
:100050000000000045100008770100087701000843
:100060007701000800000000770100087701000810
:100070007701000800000000770100087701000800
:10008000770100087701000800000000D106000891
:1000900077010008000000000000000000000000E0
:1000A00000000000000000000000000077010008D0
:1000B0007701000877010008770100087701000840
:1000C00000F002F800F03AF80AA090E8000C824430
:1000D0008344AAF10107DA4501D100F02FF8AFF20D
:1000E000090EBAE80F0013F0010F18BFFB1A43F016
:1000F00001031847C83B0000F83B0000103A24BF3A
:1001000078C878C1FAD8520724BF30C830C144BF7C
:1001100004680C60704700000023002400250026BE
:10012000103A28BF78C1FBD8520728BF30C148BF5A
:100130000B6070471FB51FBD10B510BD00F031F842
:100140001146FFF7F7FF02F009FC00F04FF803B487
:10015000FFF7F2FF03BC00F053F8000009488047A6
:1001600009480047FEE7FEE7FEE7FEE7FEE7FEE799
:10017000FEE7FEE7FEE7FEE704480549054A064BB1
:100180007047000061230008C1000008B81100207A
:10019000B8170020B8130020B8130020704770472C
:1001A0007047754600F028F8AE460500694653468C
:1001B00020F00700854618B020B5FFF7DDFFBDE849
:1001C00020404FF000064FF000074FF000084FF0BE
:1001D000000B21F00701AC46ACE8C009ACE8C0094F
:1001E000ACE8C009ACE8C0098D4670470446AFF3DF
:1001F00000802046FFF7ABFF0048704754110020F5
:1002000001491820ABBEFEE726000200704740F20D
:100210009B0CC2F2000C604740F2AD2CC2F2000C05
:10022000604740F2BB1CC2F2000C6047054A1168EF
:10023000002802D041F0010001E021F0010010602F
:1002400070470000008008400349096A014201D15B
:1002500000207047012070470080084001488069F5
:10026000704700000080084030B513490A68134BFE
:100270001A40D0E900342344D0E9024504EB0514C8
:10028000234444692344C4692344446A234490F8C2
:10029000284003EB446313444A6822F40032048C80
:1002A00002EB44420B604A60028B0A61428B8A6017
:1002B0000069886230BD0000008008400300FFF143
:1002C000034A116821F4F87101EB001010607047C7
:1002D000008008400248016841F002010160704757
:1002E00000800840054A5168002802D041F0010012
:1002F00001E021F0010050607047000000800840DC
:100300000148C069704700000080084030B51149BD
:100310004A68114B1A40D0E900342344D0E9024521
:1003200004EB0514234444692344C4692344048C26
:1003300003EB8443446A234490F8284003EB44636E
:100340001A444A60028B4A61428BCA600069C862E3
:1003500030BD0000008008400300FBF1034A5168F3
:1003600021F4F87101EB00105060704700800840E4
:100370000248416841F00201416070470080084036
:1003800010B5FFF7BDFFC0F30B0010BD10B5042082
:10039000FFF7E4FFBDE81040FFF7EABF014800693E
:1003A00070470000600300200348C068B0F5FA7F82
:1003B00000D200207047000060030020D0E9021244
:1003C00011440379026902EB03721144426911443A
:1003D0000268008B01EB405010440349034A136844
:1003E0008B431844106070470000FFF10080084004
:1003F000F0B595B00EA800F0BBF84FF400301090A7
:1004000040001190400012900EA8FFF7D7FF03A8FC
:1004100000F050F90420039040020A904FF410407D
:100420000C9007200D9003A8FFF71EFF00240A94EC
:1004300003A8FFF76BFF0120FFF7F8FE0120FFF78D
:1004400051FF684601F086FC1C20ADF800006946AB
:100450000D4801F0A1FB0D480460446044F620669D
:10046000866043F23037C7607510056100F0E5F92A
:1004700006481C30046044608660C760056100F077
:10048000DCF915B0F0BD000000000C403808002079
:1004900006480749026A0A60426A4A60826A8A60BC
:1004A000C06AC860084600F0C8B90000FC1000200F
:1004B000540800200548064902680A6242684A62F8
:1004C00082688A62C068C8627047000054080020D1
:1004D000FC1000200648074902690A6042694A6028
:1004E00082698A60C069C860084600F0A6B9000049
:1004F000FC100020380800200548064902680A61FF
:1005000042684A6182688A61C068C86170470000B9
:1005100038080020FC100020014800F08EB90000CF
:1005200054080020014800F088B900003808002075
:10053000012805D0044801600449496841607047BA
:1005400001480838F7E700005C080020600300203D
:10055000012805D00448016004498968416070475A
:1005600001480838F7E70000400800206003002039
:100570000021016041608160C16001614161816170
:100580007047000070B500250220FFF799FE002497
:10059000FFF7A0FE0420FFF757FE0028FAD0FFF770
:1005A0005DFEC0F30B000544641CE4B2042CEFD3E1
:1005B000054C65602946054801F086F8002800DAF8
:1005C0000020206170BD000060030020540800205E
:1005D00010B5234C0020207022480078002831D12B
:1005E000206940F66E71884201D80120207000F029
:1005F00013FA00B300F00AFA80B100F027FA21697B
:100600006438884205DC00F01BFA216964308842B6
:1006100018DA207840F00200207013E000F008FAA9
:100620002169081A00D5404264280BDD207840F08B
:100630000200207006E02069642803D9207840F089
:1006400002002070207800F00201002001F088FAFA
:100650002078BDE8104000F00101012001F080BACF
:10066000600300208403002070B500250320FFF7FD
:1006700027FE0024FFF72EFE0420FFF7E5FD0028EB
:10068000FAD0FFF7EBFDC0F30B000544641CE4B2A5
:10069000042CEFD3054CA5602946054801F014F859
:1006A000002800DA0020E06070BD00006003002038
:1006B000380800200021016041608160C160016153
:1006C000416101834183C16101624162816270477E
:1006D00072B6184801F056FA174801F053FA174855
:1006E00001F050FA164801F04DFA164801F04AFAA6
:1006F000154801F047FA002000F0FAF802F0C0F8BF
:100700001248007880B100F05FFAFFF7D3FEFFF7E0
:10071000F3FE00F017FF01F0D5F901F0CBFD00F07A
:10072000D3FD00F0EBFFFCE700F06CFA00F092FD67
:10073000F7E7000000800A4000000B4000800B40FB
:1007400000000C4000800C4000800E40840300201C
:10075000054A1168002802D041F0080001E021F0AC
:1007600008001060704700000080094010B5064A7C
:10077000116821F0F601D0E9003480682344084470
:100780001844106010BD0000008009400021016085
:100790004160816070470000054A1168002802D05E
:1007A00041F0010001E021F00100106070470000FD
:1007B0000080094003490968014201D100207047C7
:1007C000012070470080094000B5014600F00CF898
:1007D000084201D1002000BD012000BD0148806811
:1007E00070470000008009400148406870470000E1
:1007F00000800940054A1168002802D041F40050E9
:1008000001E021F4005010607047000000800940B2
:1008100010B5064A116821F47061D0E9003480688F
:10082000234408441844106010BD000000800940B3
:100830000021016041608160704700B50246516847
:10084000D068411A13689068C31A1069584300F0C1
:100850005BFC506113691168594353684343C81ADC
:10086000906100BD2DE9F04100245B1E0FFA83F872
:10087000531A1DB24346671E002D03DA6D422DB296
:10088000BC4601E04FF0010C002B02DA5B421BB2C8
:1008900000E001276D002DB25B001EB20180AE4268
:1008A00013DDA5EB660212B20BE0002A03DB614404
:1008B00009B2921B12B2E3191CB22A4412B220F8F8
:1008C00014104445F1D1BDE8F081A6EB65031BB2DD
:1008D0000BE0002B03DB3C4424B25B1B1BB26144E6
:1008E00009B233441BB220F814109142F1D1EAE767
:1008F000054A1168002802D041F0080001E021F00B
:10090000080010607047000000000940034A1168A9
:1009100021F0020108441060704700000000094007
:1009200001498860704700000000094006480749F7
:1009300002680A6042684A6082688A60C068C8606B
:100940000846FFF77ABF0000FC100020D008002006
:100950000148FFF772BF0000D00800202DE9F041E8
:10096000234E06F12800B16900F0A0FE044606F10E
:100970002800F16900F09AFE40F6AD71002C01DA12
:10098000002402E08C4200DD0C46002801DA002041
:1009900002E0884200DD0846B17B4FF47A7321B152
:1009A000012913D002291ED117E00021104D4FF468
:1009B000FA774435B94201D2224600E0024625F8D2
:1009C0001120491C89B29942F4D30CE002B20848C4
:1009D00021B24430FFF746FF05E001B2044822B2DD
:1009E0004430FFF73FFF00207074BDE8F081000045
:1009F000A80800200148007B70470000A8080020DC
:100A00000148406A70470000A80800200148407B68
:100A100070470000A80800200148C07B7047000014
:100A2000A80800200148406970470000A80800207D
:100A30000248017B491E50F821007047A808002099
:100A40000148C06970470000A8080020014880697B
:100A500070470000A80800200148006A70470000A5
:100A6000A80800200148807B70470000A8080020EB
:100A700010B586B00E4C204601F065FD684601F0C9
:100A80004CFD40F23F11ADF802100A21ADF8041000
:100A90006946204601F026FD0021204601F098FC21
:100AA00001220221204601F046FD06B010BD0000E3
:100AB000000007403EB5684601F04CF90124ADF84E
:100AC000004069461F4801F067F80220FFF71EFF4B
:100AD0000120FFF70DFF0020FFF722FFFFF7C8FFFF
:100AE00000F0F2F901210A2000F02EFA0020164948
:100AF000642241F82020401CC0B20228F9D30C73B4
:100B00000020487388734C744FF47A724A619200E3
:100B10008A6144F62062CA610A230B624C6208743F
:100B200009492831086048608A6040F6CC40C860B6
:100B3000501008610846FFF780FE002000F0ACF975
:100B40003EBD000000800C40A808002001490120A3
:100B5000C8717047880300200148006A00F042B95C
:100B6000A80800200749886A20F480608862064847
:100B7000064A1368036053684360926882600815F0
:100B80008862704700800240A0040020BC10002052
:100B900000200B490B4A51F8203042F82030401C0D
:100BA000C0B20228F7D3087A1073487A9073C868E5
:100BB0005061086990614869D06188691062704726
:100BC000D4100020A80800200548064902680A60E1
:100BD00042684A6082688A60C068C86070470000E6
:100BE000D0080020FC100020012806D00448016035
:100BF0000349303989684160704701480838F6E791
:100C0000D808002000200B490B4A51F8203042F848
:100C10002030401CC0B20228F7D3087B1072887BBA
:100C200050724869D06088691061C8695061086A6B
:100C300090617047A8080020D410002010B501284A
:100C400007D040F6CC442046FFF76AFE0248846095
:100C500010BD40F28F24F6E7A80800206421484325
:100C60004FF47A71B0FBF1F10448491E81600168CC
:100C70008268914201D30021016070470000074063
:100C800070B50A4C617B81420ED00025012808D046
:100C9000657300F0FBF8E573BDE87040002000F0DC
:100CA000FBB801206073F6E770BD0000A8080020C3
:100CB00010B5174CE17B814213D0E073617B89B1A1
:100CC000F0B1607C08B1FFF749FEFFF74BFF012050
:100CD00060620020207400F0D1F80E494FF480606B
:100CE000486110BD38B1207B401E54F82000BDE89B
:100CF000104000F0D1B8BDE81040002000F0CCB8A2
:100D000000F0C4F8BDE81040002000F0C5B80000B5
:100D1000A80800200080024031B5064A64216846D8
:100D200002F045FF0446044900984861FFF796FF2A
:100D3000204638BD20A10700A808002031B50222B6
:100D40000121684602F041FF044600980649C0B2FE
:100D50000873CA7B32B14A7B22B9401E51F8200089
:100D600000F09AF8204638BDA808002031B545F6B5
:100D7000C0526421684602F01AFF044606490098F2
:100D80000A7B521E41F82200CA7B1AB1497B09B97D
:100D900000F082F8204638BDA808002031B545F69D
:100DA000C0526421684602F002FF044603480099DD
:100DB000C161807B00F042F8204638BDA8080020C1
:100DC00031B545F6C0526421684602F0F0FE044693
:100DD000034800998161807B00F030F8204638BDDF
:100DE000A808002031B5124A0121684602F0EDFE44
:100DF0000546104C607B012803D1E07B08B100F070
:100E000045F8009901B901212162012060620020AA
:100E10002074607B012809D1E07B38B1FFF7A2FE86
:100E200000F02CF804494FF480604861284638BD32
:100E30009F860100A80800200080024010B50D4CDC
:100E4000A073607B012811D1E07B78B100F01EF81F
:100E5000FFF784FDFFF786FE207C002805D100F017
:100E60000DF805494FF48060486110BD01206074A1
:100E700010BD0000A80800200080024002480021A8
:100E80000160012101F024BB00000740002101485E
:100E900001F01EBB0000074010B5002807D0014636
:100EA000084800F003FC002803DA002006E00020D8
:100EB00004E040F6AD71884200DD0846BDE8104010
:100EC000FFF72EBDD008002000B58FB01748019065
:100ED00017480290C00503904FF0404004904FF037
:100EE00088500590012106914FF47A7007900020F8
:100EF00008908A0409924A050A9201AA0B920C9062
:100F00000D908DF838108DF839008DF83A000BA946
:100F10000A2001F0D9FD0748074902680A604268C3
:100F20004A60806888600FB000BD0000EC080020B7
:100F300008000940A0040020BC1000200149012045
:100F4000C8647047008002400122824003480129A2
:100F500001D0C26270478262704700000080024088
:100F600010B583680268B3F1406F26D08469641EAF
:100F70009B0E9C4022440A604269042A1FD0C2682A
:100F8000B2F1404F1FD083695B1E920F93404268BD
:100F90001A444A60D0E903231A43446A836823430E
:100FA0001A43036A1A43C3691A43836940695B1E83
:100FB00042EA031202438A6010BD0A60DCE742681D
:100FC0000C324A60E6E742684A60E3E706480021DF
:100FD000416081604161491EC1614162C1624163FA
:100FE000C1630121C1647047008002400122824038
:100FF000134BD2B2092920D2DFE801F01F05090DF9
:10100000101316191C00186800F001007047D86C06
:1010100000F001007047986A10407047186A10404D
:101020007047186910407047986910407047186BF6
:1010300010407047986B10407047002070470000C8
:101040000080024010B5144A906A400519D4134834
:1010500013490B6803604B68436089688160101511
:101060009062104CD4E90810884202D2401C6062A1
:1010700007E000210C4801F02BFA01202074FFF753
:1010800065FD02210020FFF7B1FF012803D1BDE873
:101090001040FFF753BF10BD00800240A0040020A5
:1010A000BC100020A8080020000007400249496841
:1010B000081AC00F70470000001000E000B500F0F3
:1010C0001BF802461046FFF7F1FF0028FAD100BDD9
:1010D00007480168C9070AD1016841F080710160C1
:1010E000044800214160016841F00101016070473E
:1010F000FCED00E0001000E00249496801EB4010FF
:1011000070470000001000E0400090FBF1F0002864
:1011100001DB012101E04FF0FF31084400EBD0700A
:10112000401070472DE9F05F4FF00A082B4F4FF049
:10113000000AC7F804A000254FF00069032D02D271
:1011400009EB850B04E0786828B1387809EB800B4F
:10115000234E00240AE000242BE001215846FFF72B
:1011600056F801C60BF1100B641CA4B24445F4D32D
:101170004FF6FF701A4C002604F1200B14F8011BE7
:1011800001F003FA5C4503D0761CB6B2282EF5D3E5
:1011900013490A8C824207D1C8697968884201D90B
:1011A00078603D70012400E000246D1CADB2042D78
:1011B000C4D33CB13878022802D0401C387005E016
:1011C0000020FBE787F800A0012078603A78012131
:1011D0004846FFF721F82046BDE8F09F980300201D
:1011E000D41000202DE9F04107464FF01608174EA5
:1011F000174D002407E001213046FFF708F801C52C
:101200001036641CA4B24445F5D34FF6FF70104C61
:10121000002504F1520614F8011B01F0B6F9B4429E
:1012200003D06D1CADB2582DF5D30949B1F8521059
:10123000814201D1012400E0002427B101210322D1
:10124000C806FEF7E9FF2046BDE8F0810C00000863
:10125000FC1000202DE9F047DFF86480DFF864908F
:10126000D8F80400401CC9F81C0028274FF6FF706E
:101270004C46002504F1200607E014F8011B01F09C
:1012800084F9B44203D06D1CADB2BD42F5D3A9F8C8
:1012900020000C4D98F800004FF0006101EB800633
:1012A000002407E004CD01213046FEF7BAFF1036D6
:1012B000641CA4B2B4EB970FF4D3BDE8F087000030
:1012C00098030020D41000202DE9F04158274FF654
:1012D000FF70114C002504F1520607E014F8011BC1
:1012E00001F053F9B44203D06D1CADB2BD42F5D349
:1012F0000949A1F852000D46084E002407E004CD2C
:1013000001213046FEF78DFF1036641CA4B2B4EB09
:10131000970FF4D3BDE8F081FC1000200C0000080A
:101320003EB5684600F016FD6020ADF800000120D3
:101330008DF80A0000248DF802408DF803008DF826
:1013400009006946024800F027FC0248C4803EBDFF
:1013500000000C4058030020144908788006000E55
:101360000870134A13689B0602D540F0010008700C
:101370001068400603D5087840F00200087008782D
:1013800000F00F000F280CD2DFE800F00B0C080B68
:10139000080B0B0C0C0B0B080B080C00C888401E2C
:1013A000C8807047C888401CC88070475803002018
:1013B00000000C4013494A88C88820F00300488088
:1013C000801A00B280108880042802DA10F1040F1D
:1013D00004DC00EB8000800088807047032802DA7C
:1013E00010F1030F04DC00EB8000400088807047A0
:1013F000022802DA10F1020FF9DC00EB800088808D
:10140000704700005803002010B50E480E49026CCA
:101410000A60426C4A60826C8A60C26CCA601C318D
:10142000026B0A60426B4A60826B8A60C06BC86064
:101430000548FFF702FA0448BDE810401C30FFF7EA
:10144000FCB90000FC1000207008002010B5044812
:10145000FFF7F3F90248BDE810401C30FFF7EDB983
:1014600070080020014840687047000074030020A5
:1014700001480078704700007403002070B588B000
:101480002C4E0021304600F0D7FD04A800F01EFECF
:101490001F21ADF810100A20ADF812000024ADF89D
:1014A00014400C21ADF816102021ADF81C100225B7
:1014B000ADF81E5004A9304600F0F0FD0121304681
:1014C00000F0D8FD01A800F045FC0720ADF80400AD
:1014D00001208DF80E008DF80C508DF80D508DF810
:1014E0000600154D01A9284600F056FB0821ADF86D
:1014F00004108DF8064001A9284600F04DFB0F4866
:10150000046044600E49816041F67855C5604FF42F
:101510007A710161FFF791F908481C30046044605A
:1015200049F640418160C56089100161FFF785F986
:1015300008B070BD0000044000800E40700800201C
:10154000801A06000A490B480A6802644A68426425
:101550008A688264C968C16405491C310A680263EB
:101560004A6842638A688263C968C1637047000041
:1015700070080020FC10002030B50C4B0A4D0128EB
:10158000D3E9022305F11C0404D0022808D0A96085
:10159000EA6030BD002028606A602060636030BD72
:1015A000A160E36030BD00007008002074030020DB
:1015B00070B5002001F0B0F805466420FFF77EFD0D
:1015C000022001F0A9F8154CA0606420FFF776FD19
:1015D000012001F0A1F8A168491BA160411BE16055
:1015E0000F4800F071F8606049F640410844490036
:1015F000884202D80020207070BD0948A1681C38BC
:1016000000F062F86060074908444900884202D847
:101610000120207070BD0220207070BD7403002076
:101620008C080020801A0600094800210278094829
:10163000002A08D0084AC260017001224270C170BD
:10164000C17101727047054AC2600170F5E7000080
:101650008403002088030020212D0008CD330008DA
:1016600070B5114CE578207A142801D2401C00E0B6
:101670000020C0B220720C2801D2012000E000201E
:1016800060720026A671E07910B1E6710820A071A1
:10169000E0688047A07908B100F024FDE078854239
:1016A00000D0267270BD00008803002002694A4302
:1016B0008169521A41691046FFF726BD014800684A
:1016C000704700002003002042694A4381690A44B0
:1016D00001691046FFF718BD02494CF6CC4008607E
:1016E00070470000008006400349C968014201D0EC
:1016F00001207047002070470080064002494AF6EA
:10170000AA20086070470000008006400149486038
:101710007047000000800640014988607047000063
:1017200000800640014900200860704700800640A4
:10173000024945F25550086070470000008006409D
:101740000548002101604160C1618160C1600161A3
:1017500041618161704700000C0800202DE9F041D3
:10176000184F0020386000243D1D012606FA04F0C1
:10177000C0B202F0DFF91420FFF7A0FC0021002026
:1017800055F83020136805EBC00292F804C03246C9
:1017900006FA0CFC13EA0C0F01D0824000E0002294
:1017A0001143401CC0B20528EAD338684001084301
:1017B0003860641CE4B2042CD8D3BDE8F0410020AA
:1017C00002F0B8B9200300200121002002F00BBA7A
:1017D00001480078704700004C030020FEB56846C1
:1017E00000F0B8FA7020ADF8000001268DF80A600C
:1017F0008DF8026002208DF80900414D69462846A7
:1018000000F0CAF90F21ADF8001000248DF8034054
:101810008DF804608DF802406946284600F0BCF956
:10182000684600F097FA8DF80A608DF804608DF82C
:101830000240344D05EBC400017906FA01F0ADF821
:10184000000055F83400694600F0A6F9641CE4B2C3
:10185000052CEFD30021062002F05CF900210520C1
:1018600002F058F90021042002F054F94CF25030F3
:10187000FFF724FC012002F069F9032002F0DBF9F4
:101880003220FFF71BFC032002F0D5F93220FFF7CE
:1018900015FC032002F0CFF93220FFF70FFC0220E5
:1018A00002F0C9F93220FFF709FC2A21002002F0DA
:1018B0009AF90821002002F096F90121002002F097
:1018C00092F94221002002F08EF90C21002002F052
:1018D0008AF90021084600F011F90BA000F0D6F8B3
:1018E0000121002000F00AF90CA000F0CFF803213C
:1018F000002000F003F90DA000F0C8F8FEBD0000C4
:1019000000800A4024030020CAE0EBE8E1F0E0F2A6
:10191000EEF020F2EEEAEEE2EEE900002020EFE544
:10192000F2EBE820302D3230ECC00000C2E5F0F1DF
:10193000E8FF20312E3000002DE9F04194B00EA8D0
:1019400000F0EBFD1F20ADF83A004FF47A70ADF8CF
:101950003C00284F0EA9384600F0C4FD08A800F04E
:10196000A9FD0025ADF822504FF44060ADF82A00E3
:101970004FF00808ADF832800224ADF8204008A9E5
:10198000384600F04FFD03A800F089FDADF8145073
:10199000ADF816400126ADF81860ADF80C4003A96B
:1019A000384600F05FFDBD610021384600F010FDB3
:1019B0000121384600F08CFD0F4F0821384600F019
:1019C000ADF9684600F0C6F9ADF800808DF8084022
:1019D0008DF80A608DF802608DF809406946384636
:1019E00000F0DAF8054845700A2000F075F814B0E8
:1019F000BDE8F0810080074000800C404C030020CF
:101A000070B505460C4604E015F8011B012002F0F4
:101A1000EAF8641EE4B2F7D270BD70B514461D46F4
:101A200000F06CF829462046BDE87040FFF7E8BF9B
:101A300070B5144D6878411CCCB2002804D0012840
:101A400005D000246C7070BDFEF7A0FCFAE7FEF72D
:101A500097FCC0F5805080B26988081A0A490028AE
:101A600002DA002088610BE000EB80004000C0F546
:101A7000FA60322800DA322088608868400888617D
:101A80000024DFE74C0300200080074010B5044627
:101A900003E0641C012002F0A6F821780029F8D1A7
:101AA00010BD10B5144600F029F82046BDE81040DE
:101AB000FFF7ECBF024890F8500000F00DB80000AE
:101AC000FC10002002480349007881F8500070475C
:101AD0004C030020FC10002001B5142200216846B0
:101AE00002F065F80099044AC9B211700A31642302
:101AF0005943518008BD00004C030020132800D931
:101B00000020012904D0022905D0032908D105E0CD
:101B10004030C0B204E01430C0B201E05430C0B272
:101B200040F08001002002F05EB800003EB50B4C92
:101B30000321204600F0F2F8684600F00BF903217B
:101B4000ADF8001001218DF80A108DF802108DF803
:101B500009106946204600F01FF83EBD00800B408A
:101B6000002801D0012809D101228240044811B186
:101B7000114600F0E1B8114600F0D0B870470000FF
:101B800000800B400021C160016141600160816003
:101B900041618161C16170472DE9FF4FD0F8049028
:101BA0008768D0F80CA0D0F81080D0F814C08269F3
:101BB0000192C26900920022012303254FF0011611
:101BC0000C885EE05FEAC47B56D091F802B029EA47
:101BD00003090BFA02FB49EA0B0991F808E04FEA06
:101BE000420B0EFA0BFEAF434EEA0707CDF80CB0DE
:101BF00091F80AB02AEA030A0BFA02FB4AEA0B0A36
:101C000091F803E002F1100B0EFA0BFECDF808B0CC
:101C100091F804B028EA060848EA0E080BFA02FB1D
:101C200048EA0B0891F805E0DDF808B02CEA060C4C
:101C30000EFA0BFE91F806B04CEA0E0C0BFA02FB02
:101C40004CEA0B0C91F809E0DDF80CB00EFA0BFE33
:101C5000DDF804B02BEA050B4EEA0B0ECDF804E0DC
:101C6000DDF800B091F807E02BEA030B0EFA02FE54
:101C70004BEA0E0BCDF800B05B00AD007600521CB5
:101C80006408002C9ED12449884202D14FF01F01E4
:101C900001E04FF0000129EA0109C0F8049002D1E7
:101CA0004FF01F0101E04FF0000127EA01078760B4
:101CB00002D14FF01F0101E04FF000012AEA010AB2
:101CC000C0F80CA002D14FF01F0101E04FF000015D
:101CD00028EA0108C0F8108002D14FF01F0101E08E
:101CE0004FF000012CEA010CC0F814C002D14FF0F3
:101CF0001F0101E04FF00001019A22EA0102826116
:101D000002D14FF01F0101E04FF00001009A22EADA
:101D10000102C261BDE8FF8F00000B400368054A65
:101D2000904201D11F2200E000220A439343036046
:101D30007047000000000B400368054A904201D143
:101D40001F2200E0002293430B4303607047000012
:101D500000000B404FF6FF71018000218170C170BF
:101D6000017141718171C17101724172817270475B
:101D700030B589B006A8FEF75BFD4FF48070069081
:101D80004000079006A8FEF743FD03A8FEF7FEFCFF
:101D90000020039004906020059003A8FEF7E6FC65
:101DA0000120FEF7F9FC0120FEF7D2FC4FF480542D
:101DB0002046FEF7FFFC0128FAD16846FFF7CAFF6C
:101DC0000420ADF8000069461148FFF7E5FE4CF22B
:101DD00050342046FFF790F9054608E00120FEF751
:101DE000F3FC012803D12046FFF786F90546284673
:101DF000FFF75CF90028F1D1FEF7F0FC0120FEF7B7
:101E0000F9FC04494FF40020086009B030BD00001F
:101E100000800C4000E100E02DE9F05F0025002685
:101E20000027A846214CDFF888B0DBF800906FEA65
:101E3000090AFFF743FCCBF80000C243691E814545
:101E40000AD0DBF80430192B01D20D4600E00E4613
:101E50000021CBF804100EE0DBF804301A2B02D07E
:101E60005B1CCBF80430DBF804300F2B00D30F469B
:101E7000192B00D18846206000EA0A016160E369FD
:101E80004B40E3614AEA070A0AEA000AC4F808A0DC
:101E900002EA0902E26002EA050121613240626160
:101EA00000EA0800A061BDE8F09F00000C080020D7
:101EB000500300200149086070470000B40240420E
:101EC000034A516921F4706141EA00205061704772
:101ED00000000240034A516921F03301014351617E
:101EE0007047000000000240014908607047000090
:101EF000880040420B4AD36823F003030343D360B6
:101F0000506820F4706040EA012050600648D0F824
:101F10008810002904D0012140F88C1F00210160A5
:101F200070470000000002400000404208B5002059
:101F300000904FF4C063212000F02AF80099491C5A
:101F400000910099994201D20028F4D0212000F09C
:101F50001FF808B1012008BD002008BD0149086034
:101F60007047000088014042034AD16821F0F00127
:101F700041EA0010D060704700000240034AD16877
:101F800021F440710143D16070470000000002401D
:101F9000C0F34211012909D00749C96B00F01F02A3
:101FA00001209040084204D001207047034909688D
:101FB000F4E700207047000000800D400000024060
:101FC00009498A6822F003028A60012806D00228A3
:101FD00003D1886840F0030088607047886840F04B
:101FE00001008860704700000000024008B5002032
:101FF00000904FF4C0632220FFF7CAFF0099491CEC
:1020000000910099994201D20028F4D02220FFF7D4
:10201000BFFF08B1012008BD002008BD054A002906
:1020200003D0D1690143D1617047D1698143D16146
:10203000704700000000024010B50B4BDA6A0B4CF1
:10204000A04205D142F0807020F0FF020A4308E070
:10205000074CA04205D142F0007020F47F4040EAD6
:102060000122DA6210BD00000000024000000440BE
:1020700000000A40002904D0416841F0020141609B
:10208000704741684FF6FD72114041607047C0686B
:10209000084201D0012070470020704710B54A88DF
:1020A00002610A894B890C881A448B8903EB04234B
:1020B0001A44CB881A440260CA8989881144416055
:1020C00010BD806880B270478160704700218180B8
:1020D0000722C280418101818181022242800180E8
:1020E0007047000014498A78002A0AD0134A092848
:1020F00007D2DFE800F0060507090D1115191D00CC
:10210000CA607047CA6070470C480830C8607047A2
:102110000A480C38C860704708480838C8607047DB
:1021200006481830C860704704482830C8607047B7
:1021300002481030C8607047A00300207A3C0008B5
:102140000148807870470000A0030020F0B595B0EA
:102150000FA800F0E2F91F20ADF83E004FF47A70AE
:10216000ADF84000274F0FA9384600F0BBF909A889
:1021700000F0A0F90024ADF826404FF44060ADF81F
:102180002E000820ADF83600ADF8244009A93846E5
:1021900000F048F904A800F082F9ADF812400226D8
:1021A000ADF814600125ADF81650ADF8104004A943
:1021B000384600F057F93C610021384600F008F934
:1021C0000121384600F084F90F4F04213846FFF70B
:1021D000A5FD01A8FFF7BEFD0420ADF804008DF8B1
:1021E0000C608DF80E508DF806508DF80D6001A929
:1021F0003846FFF7D1FC05480470C460857015B0FF
:10220000F0BD00000000084000800B40A00300204B
:102210002DE9F0410020214D0026E968002900D079
:102220002E70012734E0297821B101290BD0022931
:102230002ED126E0E96821B1A960EE606E702F70A2
:1022400026E0012024E06878411C6970A96801EB50
:102250008004608878B1208828B101F093FC0120C7
:1022600001F084FC02E0002001F080FC6088A8807E
:102270000220287003E02E70002001F077FC01207E
:1022800006E0A988491E0904090CA98004D0012090
:102290000028C8D0BDE8F0812F70F9E7A003002026
:1022A0000248034990F8510088707047FC100020E4
:1022B000A003002002480349807881F8510070474C
:1022C000A0030020FC100020014988707047000026
:1022D000A003002010B5054800F08BFCFFF7A8FB19
:1022E000FFF73AF8BDE81040FFF792BF2C08002036
:1022F00010B5174BD868174C800701D5204600E071
:102300002046D968C90700D01348D968490704D5C1
:102310005968C1F30321491C4843D9680F4AC1F3E6
:10232000012139B1012907D002290DD049F64040D9
:10233000106010BD146010BDD968C1F30311491CB1
:10234000B0FBF1F0106010BD4FF40040106010BD04
:102350000000024000127A0000093D001C0300202A
:1023600008480749C161C1680021C16042684160F5
:10237000826881600269016142694161FFF7B8BF0B
:1023800010000008000002400E484FF47A71006807
:10239000B0FBF1F10020B1F1807F0BD221F07F4240
:1023A0004FF0E021521E4A61074BE0221A7088610B
:1023B00007220A6105490860486088601320C880C8
:1023C000704700001C03002023ED00E02C080020D3
:1023D00010B5104B5A6A104CA04205D122F0FF00F4
:1023E000084340F0807212E00C4CA04206D122F467
:1023F0007F4040EA012040F0007208E0084CA04213
:1024000005D122F47F0040EA014040F080625A6228
:1024100010BD00000000024000000740008007409F
:102420000000084010B54A88CB884C891A440B89B3
:1024300023441A448B8902EB8312CB891A440B8AFA
:102440001A448B88002B01D002F500520B8800EB58
:1024500083031A62488ACA8A1044898A01B1001D1E
:10246000186610BD10B5CA884B880C8902EB0312A0
:102470008B889B0003EB04331A444B8902EB8322C5
:102480008B8902EB03220B8800EB830002630A8A2C
:102490004B8AC9891A4402EB0121016410BD002155
:1024A00041808180C180018141818181C18101821E
:1024B000418270470021018041808180C18001817B
:1024C00041818181C181018241828182C1827047C3
:1024D000C268002902D042F0010101E022F00101AE
:1024E000C160704710B50A8802604A8842608A88D5
:1024F0008260CA880B898C891A444B8923441A4408
:10250000CB891A44C2604A8A8B8A1A44CB8A098AC8
:1025100003EB01111144016510BD002101804180D0
:102520008180C180018141818181C181018241829B
:102530008182C1827047C36D002A01D00B4300E045
:102540008B43C36570470021C160016041608160B9
:10255000016241628162C162016341638163C1635F
:10256000016641668166C166016141618161C16147
:10257000016741678167C167016441648164C16427
:10258000016541658165C1657047484000214AF297
:102590000102C30702D082EA500000E04008491C53
:1025A0000829F6DB704730B585B0FEF761FF0446B9
:1025B000FEF758FF049003256CB1022104A800F037
:1025C00081FB04230A2201A90095049800F064F914
:1025D000022C14D018E0012104A800F073FB04239E
:1025E0000A2201A90095049800F056F905230DF17F
:1025F000060203210D20FFF710FA05B030BD2A2096
:102600008DF808008DF80700052301AA03210D208D
:10261000FFF703FAF1E7000010B5FFF7D5F8002146
:10262000BDE8104001A20846FFF73BBAC8F1F2EE40
:10263000F7EDE8EA20F2EEEAE03A000010B5FFF725
:10264000C3F80021BDE8104001A20846FFF729BAEF
:10265000C0ECEFE5F0ECE5F2F03A000010B5FFF762
:10266000B3F80021BDE8104001A20846FFF719BAEF
:10267000D1E8F1F2E5ECEDFBE520EDE0F1F2F0EE72
:10268000E9EAE83A0000000010B5214901224A7148
:1026900020484FF000034068C40701D00B7110BD03
:1026A000040401D50A7110BDC20302D502200871CD
:1026B00010BD820302D50320087110BD420502D56A
:1026C0000420087110BD020502D50520087110BD57
:1026D000C20402D50620087110BD820602D507206B
:1026E000087110BD420602D50820087110BD02060F
:1026F00002D50920087110BD820702D50A20087191
:1027000010BD400702D50B20087110BD4B7110BDE4
:10271000880300200C0800202DE9F041002500F07E
:10272000070040F0080040F0100700240A4E394628
:102730003046FFF7C9FC04213046FFF7A8FC01280A
:10274000F9D13046FFF7BDFC0544641CE4B2042C0B
:10275000EDD32846BDE8F081000004400246917A9E
:10276000506892F90820002A07DD891AC9B204E0EE
:1027700000EB80004000491EC9B20029F8D1704723
:102780000248006800F00F007047000000800A4017
:1027900070B5FEF71BFC0E484FF0FF3404628461F5
:1027A00001210D052846FFF739FC0A4A0021516234
:1027B000094A51622846FFF731FC084AC2F8FC4139
:1027C000C2F8FC4000F0B0F92020D06770BD0000D6
:1027D000008002400000044000000A4084E000E065
:1027E00010B50446FEF778FFFEF7A2FF0020FEF7C3
:1027F0008DFF0120FEF778FF0128FAD16420B4FB99
:10280000F0F0FEF789FFBDE81040FEF78BBF000037
:1028100010B50120FFF7D4FBFFF7E8FB012800D03B
:10282000FEE703210220FFF765FB0120FFF75CFBB9
:10283000FFF77CFB012800D0FEE70020FFF794FBA8
:102840000120FFF78BFB4FF48070FFF797FB2020F0
:10285000FFF740FB0020FFF733FB0120FFF72AFBC7
:10286000FFF746FD01210448FFF7D8FBBDE8104003
:1028700001210248FFF7D2BB0000E02328E10F004E
:1028800010B50020FFF77AFB0020FFF799FBBDE8A9
:1028900010400020FFF728BB2DE9F0410446069EBA
:1028A0004FF0000C0020002A0BD0002C02DA64420A
:1028B0004FF0010C1144491E150605D522F0800287
:1028C00007E00020BDE8F081002501F80159521E03
:1028D000D2B232B14FF02E08B04204D101F80189D2
:1028E0000EE00020EEE70A2594FBF5F705FB1747FD
:1028F000303701F8017994FBF5F40BB15B1EDBB2C4
:10290000401CC0B2521ED2B20CB1002AE4D1302415
:102910000DE0B04202D101F8018904E001F801495B
:102920000BB15B1EDBB2401CC0B2521ED2B20BB167
:10293000002AEED14AB1BCF1000F06D02D2301F8D8
:102940000139401CC0B2521ED2B2202301E001F86E
:102950000139521ED2B2FAD2B4E70000FFF758FF95
:10296000FFF716FFFEF7B4FB4B4F3846FEF7C4FBEC
:102970008046FEF733FFFEF7DFFFFEF7E1FEFFF7CD
:10298000D5F8FEF7CDFCFDF733FDFEF777FDFEF73A
:1029900091F8FFF7DBFBFEF7E1FEFEF78FFE3F4EFF
:1029A000C0F3C040307000B10120FEF71BFC0446AC
:1029B00020000BD0FDF7BAFFFDF76AFDFDF78AFD99
:1029C000FEF722FDFFF776F8FFF76AFC307840B992
:1029D000FEF7A8FB28B1FEF771FE800401D4FEF7D4
:1029E000D7F82F4D002028606860A8600420E88098
:1029F000A87840F00100A870FFF7BAF9FFF7C4FC0F
:102A00004046FEF753FB0028FAD1307804430ED13C
:102A1000FEF7DAFE002123A20846FFF742F824A2BF
:102A200001210020FFF73DF83846FEF747FB46F24C
:102A3000A810FFF7D5FEFEF7F7FD224CA07840F076
:102A40000100A0700120FFF74DFB20788107FCD525
:102A500072B620F00200207062B6FEF74FFE1048FA
:102A600000F0C7F82878810702D43178012906D10F
:102A700020F002002870FDF7F7FDFEF799FDFDF745
:102A800081FDFDF7A5FDFEF769FEFFF7C5F9FEF72D
:102A900091FCFEF7E5FDD8E740420F0084030020DB
:102AA00000080020CDE5EEE1F5EEE4E8ECE0000002
:102AB0002020202020EAE0EBE8E1F0EEE2EAE0214D
:102AC000000000002C0800202DE9F04107460D46CB
:102AD000134E0124BC40F4622868002804D0114938
:102AE00001EB0711FEF73CFA686820B1F16801EBD1
:102AF0000711FEF735FA687B01280AD0F461746289
:102B0000A87B40B13463287B012806D0F463BDE87C
:102B1000F081B461F3E77463F5E7B463F7E70000AD
:102B20000080024000040020034802498160212106
:102B300041607047000400200080024070B50346E9
:102B40000025092927D829B9586818B993F9080028
:102B5000002845DB93F90840987A844219DA5E68C8
:102B600006EB8600400008445860587A401C5872B2
:102B7000002C01DB601C18721846FFF7EFFD196886
:102B800088422DD95E601C72587A401E5872012509
:102B900026E0012524E000220A2902D00B290FD0CB
:102BA0001EE0987A50B193F90800002818DA1A72DA
:102BB0005868A8B9587A401C587211E001250FE0F6
:102BC00093F9080070B159680A22B1FBF2F159601B
:102BD000597A29B1491E5972002801DD401E187228
:102BE000284670BDFF20187258680028F8D15A7224
:102BF000F6E710B58278D10745D08188C38899421D
:102C00000CD3930702D522F001028270027842F0C1
:102C1000010242F002020270002205E0027822F076
:102C2000010202704A1C92B2037823F0080323F0D9
:102C3000100303700489A14207D143F0080343F055
:102C4000100383F02003037003E002D943F0100364
:102C50000370037823F0400323F08003037044895A
:102C6000A1420BD143F0400141F080010170437853
:102C70004FF0010121EA0301417003E002D943F062
:102C800080010170828010BD10B50520FEF716FA94
:102C90000121062000F03EFF0A20FEF70FFAFFF7A1
:102CA0006FFD04460021062000F034FF0520FEF7EA
:102CB00005FA204610BD00224260FF2303724272D3
:102CC0008172704718B504462068002800DA404237
:102CD0000090684600F009F82068002802DA0098A1
:102CE000404200E00098206018BD10B5012202E0CB
:102CF00002EB82025200491EC9B2F9D202EB8201F4
:102D00004B000168B1FBF3F403FB141402EB8202E5
:102D1000A24201D8194401600168091B016010BD7D
:102D20002DE9FF5FF74E3478FFF7AEFC30780225CF
:102D3000DFF8D493F54F0DF104084FF0FF3B4FF04F
:102D4000010A092879D2DFE800F0054789DDFDFC9A
:102D5000FBFAF900707830B1FFF780FCECA2022199
:102D60000020FEF79EFEDFF8C093B9F8000048B9D6
:102D70007868010402D5A9F800B003E0C00301D5CA
:102D8000A9F800A0B9F8000048B1FEF721FDB9F993
:102D900000100844FEF7A0FEB8B10520B071FEF7A0
:102DA00017FD01230A2201A9CDF800B0FFF774FD39
:102DB000022308F1070219461220FEF72EFE78685A
:102DC000410304D50124B571B8E20420E6E780048C
:102DD000FAD50124B571B1E2707830B1FFF73EFC4D
:102DE000D2A202210020FEF75CFEDFF83C83B8F897
:102DF000000048B97868010402D5A8F800B003E0E3
:102E0000C00301D5A8F800A0B8F8000060B1FFF732
:102E100097F9B8F900100844002801DD012000E00E
:102E20000020FFF751FAB571FFF78AF930B1C1A25E
:102E300002210F20FEF735FE05E069E2BFA2022164
:102E40000F20FEF72EFE7868410302D50224B571EB
:102E500074E28004B8D50224B5716FE27078D0B105
:102E6000FFF7DAFBB7A201210020FEF71AFEB9A294
:102E700002210020FEF715FEB5A203211220FEF765
:102E800010FE0120FDF7DAFE4CF250330322002140
:102E90009D4800F07DFE707930B131799A48FFF796
:102EA0004DFE28B10320B07199F809301BB901E03B
:102EB0000220F8E7012399F9080000900A2201A9ED
:102EC000D9F80400FFF7E8FC072308F10202032108
:102ED0000B20FEF7A2FD786841030ED58A48FFF764
:102EE0003DFC044621460120FDF77EFE21460120DF
:102EF000FDF71EFB0324B57120E28004A8D503244E
:102F0000B5711BE2707800B3FFF786FB97A2012131
:102F10000020FEF7C6FD8FA202210020FEF7C1FDB2
:102F20008BA203211220FEF7BCFD0220FDF786FED6
:102F300003224CF250330021734804E096E145E14E
:102F40002CE18DE03CE000F023FE707930B1317966
:102F50006D48FFF7F3FD28B10320B07199F80930EF
:102F60001BB901E00220F8E7012399F9080000905D
:102F70000A2201A9D9F80400FFF78EFC072308F103
:102F8000020203210B20FEF748FD7868410312D5A9
:102F90005D48FFF7E3FB044621460220FDF724FECF
:102FA000FDF7D6FC21460220FDF7C2FAFDF7B4FA80
:102FB0000424B571C2E180049ED50424B571BDE13D
:102FC0007078D8B1FFF728FB6CA201210020FEF732
:102FD00068FD60A202210020FEF763FD6AA20321C2
:102FE0001220FEF75EFD4FF47A60FDF755FF4CF2BC
:102FF000503303220021444800F0CAFD707930B1FB
:1030000031794148FFF79AFD28B10320B07199F852
:1030100009301BB901E00220F8E7012399F9080003
:1030200000900A2201A9D9F80400FFF735FC072314
:1030300008F1020203210B20FEF7EFFC7868410340
:1030400009D53148FFF78AFB01460120FDF780FAD8
:103050000524B57172E18004ACD50524B5716DE12C
:103060007078D8B1FFF7D8FA48A201210020FEF706
:1030700018FD38A202210020FEF713FD42A2032111
:103080001220FEF70EFD44F62060FDF705FF4CF21E
:103090005033032200211C4800F07AFD707930B1D2
:1030A00031791948FFF74AFD28B10320B07199F82A
:1030B00009301BB901E00220F8E7012399F9080063
:1030C00000900A2201A9D9F80400FFF7E5FB0723C5
:1030D00008F1020203210B20FEF79FFC78684103F0
:1030E0000BD50948FFF73AFB01460220FDF730FAFD
:1030F000FDF718FA0624B57120E18004AAD506244C
:10310000B5711BE188030020C81000200C080020C6
:10311000CAEEEDF2F0E0F1F22028302D3230293AFB
:1031200020202020000000005C030020C7E2F3EA1A
:103130003A20000020E2EAEB00000000E2FBEAEBAC
:1031400000000000CAE0EBE8E1F0EEE2EAE0203443
:10315000ECC00000C8E7ECE5F0E5EDEDEEE520E7BA
:10316000EDE0F7E5EDE8E53A00000000CAE0EBE845
:10317000E1F0EEE2EAE0203230ECC000CAE0EBE839
:10318000E1F0EEE2EAE02034C2000000CAE0EBE841
:10319000E1F0EEE2EAE0203230C20000707830B1B7
:1031A000FFF74CFA6BA201210020FEF77AFC786849
:1031B000410306D500210120FEF7DEF90724B57191
:1031C000BCE0800498D50724B571B7E07078D8B119
:1031D000FFF734FA63A201210020FEF762FCAFF290
:1031E0008C0202210020FEF75CFC5DA2032112206C
:1031F000FEF757FC44F62060FDF74EFE5D4B0322C0
:1032000000215D4800F0C4FC707930B131795A4832
:10321000FFF794FC28B10320B07199F809301BB96D
:1032200001E00220F8E7012399F9080000900A2242
:1032300001A9D9F80400FFF72FFB072308F10202C8
:1032400003210B20FEF7E9FB7868410309D54A48C2
:10325000FFF784FA01460220FEF78EF90824B571C3
:103260006CE080046AD50824B57167E07078D8B145
:10327000FFF7E4F941A201210020FEF712FCAFF2B2
:103280002C1202210020FEF70CFC35A20321122093
:10329000FEF707FC44F62060FDF7FEFD354B0322E8
:1032A0000021354800F074FC707930B13179324832
:1032B000FFF744FC28B10320B07199F809301BB91D
:1032C00001E00220F8E7012399F9080000900A22A2
:1032D00001A9D9F80400FFF7DFFA072308F1020279
:1032E00003210B20FEF799FB786841030BD5224898
:1032F000FFF734FA01460320FEF73EF9FEF7A6F881
:103300000924B5711AE0800418D50924B57115E0B7
:10331000707898B1FEF758FA00211DA20846FEF712
:10332000C0FB20A201210020FEF7BBFB21A203214C
:103330000020FEF7B6FB0020FDF7AEFD307884429A
:1033400004D0347086F801A0BDE8FF9F00207070A3
:10335000FAE70000CAE0EBE8E1F0EEE2EAE0203054
:10336000ECC00000CAE0EBE8E1F0EEE2EAE0203475
:1033700030ECC00040420F00C8100020CAE0EBE86B
:10338000E1F0EEE2EAE020343030ECC00000000072
:10339000CAE0EBE8E1F0EEE2EAE020EFF0E8E1EE8F
:1033A000F0E000002020202020E7E0E2E5F0F8E552
:1033B000EDE02E00CFE5F0E5E7E0EFF3F1F2E8F223
:1033C000E520EFF0E8E1EEF0000000002DE9F04F1D
:1033D00085B0FE4F3C78FFF757F938780026DFF8C4
:1033E000F0834FF0030B0DF104094FF0010A0225A1
:1033F00020B1012874D0022873D199E2787800288E
:1034000018D0FEF7E1F90021F2A20846FEF749FBC9
:10341000F6A201210020FEF744FBFAA202210020BF
:10342000FEF73FFBFDA203210020FEF73AFB002040
:10343000FDF726FCF87860B9D8F80400410303D5FD
:103440000120FDF735FC04E0800402D50020FDF7E3
:103450002FFCD8F8040000030BD5FDF7CBFA401C75
:10346000022800DD0120FDF769FCC0B30720B87118
:10347000FE70FDF7BFFA4FF0FF31009101230A22E1
:1034800001A9FFF709FA012303AA00211320FEF77F
:10349000C4FAE848008878B1FDF7CAFAE549B1F9FD
:1034A000001001EBC10202EB011100EB8100FDF7FE
:1034B0005DFCC8B10520B871F878B8B1D8F804003F
:1034C000410321D5DC48FFF749F9642148430490C2
:1034D000FDF74CFCB0B10720B871FE7022E001E0AE
:1034E00088E086E00620C2E70420E4E77879C8B1E6
:1034F000F02301223979D04800F04AFB87F803A075
:10350000BD710FE00620E7E7800402D5FE70BD71B3
:1035100008E0787930B13979C748FFF70FFB38B147
:103520000320B871F87828B1C348437AABB913E0E7
:103530000220F6E7FDF77CFA049004230A2201A991
:10354000CDF800B0FFF7A8F9052309F10202012127
:103550000D20FEF762FA18E0012390F9081000919F
:1035600040680A2201A9FFF797F9787A38B1042355
:1035700009F1050201210E20FEF74FFA05E00423B0
:10358000AE4A01210E20FEF748FAFCF707FF04902F
:10359000012104A8FFF7A9FB04230A2201A9CDF801
:1035A00000B00498FFF778F9042309F1030202211F
:1035B0000E20FEF732FAFCF7F7FE0490012104A872
:1035C000FFF793FB04230A2201A9CDF800B0049869
:1035D000FFF762F9042309F1030202210720FEF735
:1035E0001CFAFEF7E0FF98F80400000701D501245B
:1035F000BD7158E27878C0B1FEF7E6F8002190A2DC
:103600000846FEF74EFA90A201210020FEF749FA83
:1036100093A202210020FEF744FA80A20321002099
:10362000FEF73FFA0120FDF72BFBF87860B9D8F8D8
:103630000400410303D50120FDF73AFB04E08004B8
:1036400002D50020FDF734FB98F80000000719D5DB
:10365000D8F80400010405D50020FDF7EFFB062093
:10366000B8710EE0C10305D50120FDF7E7FB062088
:10367000B87106E0800304D50220FDF7DFFB0620C9
:10368000B8717E71FDF7EEF920B1012808D002284B
:1036900011D10BE078A200210A20FEF702FA0AE01D
:1036A00078A200210A20FEF7FCF904E078A20021AC
:1036B0000A20FEF7F6F95F48008828B3FDF7B2F953
:1036C000764A904212DB5B49B1F9001001EB4103ED
:1036D000C3EBC11100EBC100904210DD4FF47A71D1
:1036E00090FBF1F201FB1201401A08E05149B1F9D7
:1036F000001001EBC10202EB011100EB8100FDF7AC
:103700000BFB50B30520B871FDF78CF9049004232E
:103710000A2201A9CDF800B0FFF7BEF8052309F190
:10372000020201210E20FEF778F9D8F80400000308
:1037300002D5FDF711FABD71F87880B1D8F8040010
:1037400041031BD53C48FFF709F80490FDF74AFBFD
:1037500090B10720B871FE701EE00420D3E778799D
:10376000D0B14E4B00225B1E3979334800F010FA7D
:1037700087F803A0BD710FE00620EBE7800402D5B7
:10378000FE70BD7108E0787930B139792A48FFF7C9
:10379000D5F9C8B10320B871FDF732F904904FF0A4
:1037A000FF3B01230A2201A9CDF800B0FFF774F80E
:1037B000052309F1040202210920FEF72EF9F87809
:1037C00018B11D48437A6BE06CE06DE0880300207F
:1037D0000C080020CFEEF1F22E20F2EEEA2E20CFE0
:1037E000F0EEF4E8EBFC202000000000D3F1F22E14
:1037F00020F2EEEA3A202020202020202020ECC0D9
:1038000000000000C2FBF5EEE43A20202020204218
:10381000202020202020ECC000000000C0ECEFE5BC
:10382000F0ECE5F2F03A2020202020202020ECC00F
:10383000000000005C030020C8100020623C00086B
:10384000D1E8E3EDE0EB3A00CFE5F0E8EEE43A2032
:103850002020202020202020202020F10000000017
:10386000D6E8EAEBEEE23A202020202020202F208C
:10387000202020200000000020202020ECE5E0EDAA
:10388000E4F00000202020202020EFE8EBE0000002
:1038900020EEE1F02E20EFE8EBE00000A086010032
:1038A000ABB913E0022076E7FDF7D6F804900123C8
:1038B0000A2201A9CDF800B0FEF7EEFF052309F1B9
:1038C000040202210F20FEF7A8F817E00123CDF82B
:1038D00000B040680A2201A9FEF7DEFF787A38B10D
:1038E000052309F1040202210F20FEF796F805E0F6
:1038F0000523734A02210F20FEF78FF8FEF753FECF
:10390000D8F80400C10502D50024BD71CBE098F8B9
:103910000010090704D5810603D50224BE70BD71CD
:10392000C1E0400603D5022487F802A0BD71BAE0C9
:10393000787868B1FDF748FF002162A20846FEF7DB
:10394000B0F8B878B0B364A202210020FEF7A9F85D
:103950006748008898B1B87868B3FDF771F8644992
:10396000B1F9001001EBC10202EB011100EB810083
:10397000B97851B3FDF712FA50B30520B871F87851
:1039800040B3D8F80400410335D55A48FEF7E6FEA7
:10399000642148430490B97841B3FDF7FFF940B37F
:1039A0000720B871FE70D8F8040020F48020C8F811
:1039B000040032E000E005E04FA202210020FEF703
:1039C00070F8C5E7FDF742F8C9E7FDF7F9F9D3E765
:1039D0000420D3E7787900B3F023012239794548F0
:1039E00000F0D6F887F803A0BD7116E0FDF7E8F9FE
:1039F000D5E70620D5E7810406D5BD71FE7020F419
:103A00000050C8F8040008E0787930B139793948B5
:103A1000FFF794F838B10320B871F87828B1354829
:103A2000437AE3B91AE00220F6E7B87890B1FDF7DF
:103A300007F8049004230A2201A9CDF800B00498E5
:103A4000FEF72AFF052309F1020202210D20FDF7EE
:103A5000E4FF1CE0FCF7FAFF0490EBE7012390F988
:103A60000810009140680A2201A9FEF715FF787A34
:103A700038B1042309F1050202210E20FDF7CDFF24
:103A800005E004230E4A02210E20FDF7C6FFD8F8F8
:103A90000400C10502D50024BD7104E01C490842A0
:103AA00001D00124BD713878844206D03C7087F87B
:103AB00001A0FE7005B0BDE8F08F7E70FAE700004F
:103AC000623C0008C0ECEFEBE8F2F3E4E020F1E840
:103AD000E3EDE0EBE03A0000CCE0EAF1E8ECF3ECF7
:103AE0003A202020202020202020ECC000000000D0
:103AF0005C030020C8100020CCE8EDE8ECF3EC3AC1
:103B000020202020202020202020ECC000000000C9
:103B1000082004000122064B8240002903D01868C7
:103B20001043186070471868904318607047000091
:103B300000800A40044A116821F00F0100F00F00D4
:103B4000084310607047000000800A4006490128C1
:103B500004D0486820F00F0048607047486840F083
:103B60000F0048607047000000800A4004490028A8
:103B700003D08868C008086170470020086170475A
:103B800000000840014988607047000000000840BC
:103B900070B50E46044611461D462046FFF78BF8C9
:103BA000256031462046BDE87040FEF7C7BF10B51E
:103BB000034600201C688C4202DA1960012010BD07
:103BC0009442FCDD1A60022010BD10B503460020AF
:103BD0001C688C4202D21960012010BD9442FCD9AD
:103BE0001A60022010BD70B506460D460020FFF792
:103BF000ADFF01210520FFF78DFF00210420FFF715
:103C000089FFFFF741F80446FFF73EF82007F8D494
:103C10000120FFF79BFF00210520FFF77BFF3146C6
:103C20000420FFF777FF280900F005F82846BDE8D3
:103C30007040AFF3008010B5FFF77CFF0520FDF763
:103C40003DFA01210620FFF765FF0A20FDF736FA4D
:103C500000210620FFF75EFFBDE810400520FDF7BC
:103C60002DBA20202020202020202020000000002D
:103C70000000D007160000000000E8031400000058
:103C80000000D007140000000000E803F401000069
:103C90000000E80328000000280059032800000065
:103CA0000000D007280000002800D00728000000EE
:103CB0002800D0072800000000000000EC3C0008AD
:103CC000000000201C030000FC0000080840000861
:103CD0001C03002094000000FC0000089C40000829
:103CE000B0030020081400001801000808B5009077
:103CF00002E00098401E009000980028F9D108BD0D
:103D00009F4A9E4B1361136803F038035B1C012923
:103D100014D0002119431160506041F4E073136026
:103D2000D368D368D368D36801F0380111600021EB
:103D300011618007C00EC340D8B270474FF40071C4
:103D4000E8E78F4A8D4B1361136803F038035B1C5F
:103D5000012915D0002119431160506041F4E0732E
:103D60001360D368D368D368D36801F03801116059
:103D70000021116100F00200C000C34098B27047FA
:103D80004FF40071E7E77E4A7C4B1361136803F040
:103D900038035B1C012910D00021194311605060C9
:103DA00041F4E0701060D068D068D068D06801F04D
:103DB000380111600021116170474FF40071ECE788
:103DC0002DE9F04780466E4E6C483061306800F057
:103DD0003800401C01292BD0002404433460002506
:103DE000002749F6404908EB05007060B76044F4CD
:103DF000886434600520FFF779FF44F40054346090
:103E00004846FFF773FF24F4806434600520FFF711
:103E10006DFF24F4015434600120FFF767FF2D1D6E
:103E2000102DE0D304F0380030603761BDE8F08732
:103E30004FF40074D1E72DE9F041514E4F49316103
:103E4000316801F03801491C022829D000240C43B4
:103E500034600025002749F640487560B76044F497
:103E6000446434600520FFF741FF44F4005434609B
:103E70004046FFF73BFF24F4806434606420FFF782
:103E800035FF24F4215434600120FFF72FFF2D1D4E
:103E9000102DE2D304F0380030603761BDE8F081C6
:103EA0004FF40074D3E770B5354C344B23610129CE
:103EB00030D00021236803F038030B4343F00101A5
:103EC00021606060A26041F4825525600520FFF703
:103ED0000DFF45F4005525600A20FFF707FF45F068
:103EE000800525602820FFF701FF25F08000206075
:103EF00020F4805525600520FFF7F8FE25F40155D4
:103F000025600120FFF7F2FE05F038002060002058
:103F1000206170BD4FF40071CCE72DE9F0410646F9
:103F20000F46B007C00E02FA00F5FF248440394660
:103F30003046FFF728FFA043254040EA05023946F6
:103F40003046BDE8F041AEE72DE9F04106460F46A8
:103F500006F00200C00002FA00F54FF6FF7484403C
:103F600039463046FFF70FFFA043254040EA0502DF
:103F700039463046BDE8F04195E700005155AA8A20
:103F80000080014008B5009002E00098401E0090BB
:103F900000980028F9D108BD70B51A4C184B236160
:103FA000236803F038035B1C012925D00021194345
:103FB00021609200104460600026A66041F488658C
:103FC00025600520FFF7DEFF45F40055256049F622
:103FD0004040FFF7D7FF25F4806525600520FFF7F7
:103FE000D1FF25F4015525600120FFF7CBFF05F037
:103FF00038002060266170BD4FF40071D7E70000E3
:104000005155AA8A0080014000127A000000000089
:1040100000800A400700000000000B400A0000007A
:1040200000000B400900000000000B4008000000E9
:1040300000000B400700000000000000000000002E
:104040000000000000000000000000000000000070
:104050000000000000000000000000000000000060
:104060000000000000000000000000000000000050
:104070000000000000000000000000000000000040
:104080000000000000000000000000000000000030
:0C40900000000000000000000000000024
:04000005080000C12E
:00000001FF
