:020000040800F2
:10000000B01700205D0100086501000867010008C5
:10001000690100086B0100086D0100080000000084
:100020000000000000000000000000006F01000858
:10003000710100080000000073010008012300089E
:100040007701000877010008770100080000000030
:10005000000000006910000877010008770100081F
:100060007701000800000000770100087701000810
:100070007701000800000000770100087701000800
:10008000770100087701000800000000BD060008A5
:1000900077010008000000000000000000000000E0
:1000A00000000000000000000000000077010008D0
:1000B0007701000877010008770100087701000840
:1000C00000F002F800F03AF80AA090E8000C824430
:1000D0008344AAF10107DA4501D100F02FF8AFF20D
:1000E000090EBAE80F0013F0010F18BFFB1A43F016
:1000F00001031847BC3B0000EC3B0000103A24BF52
:1001000078C878C1FAD8520724BF30C830C144BF7C
:1001100004680C60704700000023002400250026BE
:10012000103A28BF78C1FBD8520728BF30C148BF5A
:100130000B6070471FB51FBD10B510BD00F031F842
:100140001146FFF7F7FF02F021FC00F04FF803B46F
:10015000FFF7F2FF03BC00F053F8000009488047A6
:1001600009480047FEE7FEE7FEE7FEE7FEE7FEE799
:10017000FEE7FEE7FEE7FEE704480549054A064BB1
:100180007047000091230008C1000008B011002052
:10019000B0170020B0130020B01300207047704744
:1001A0007047754600F028F8AE460500694653468C
:1001B00020F00700854618B020B5FFF7DDFFBDE849
:1001C00020404FF000064FF000074FF000084FF0BE
:1001D000000B21F00701AC46ACE8C009ACE8C0094F
:1001E000ACE8C009ACE8C0098D4670470446AFF3DF
:1001F00000802046FFF7ABFF0048704750110020F9
:1002000001491820ABBEFEE726000200704740F20D
:100210009B0CC2F2000C604740F2AD2CC2F2000C05
:10022000604740F2BB1CC2F2000C6047054A1168EF
:10023000002802D041F0010001E021F0010010602F
:1002400070470000008008400349096A014201D05C
:1002500001207047002070470080084001488069F5
:10026000704700000080084030B513490A68134BFE
:100270001A40D0E900342344D0E9024504EB0514C8
:10028000234444692344C4692344446A234490F8C2
:10029000284003EB446313444A6822F40032048C80
:1002A00002EB44420B604A60028B0A61428B8A6017
:1002B0000069886230BD0000008008400300FFF143
:1002C000034A116821F4F87101EB001010607047C7
:1002D000008008400248016841F002010160704757
:1002E00000800840054A5168002802D041F0010012
:1002F00001E021F0010050607047000000800840DC
:100300000148C069704700000080084030B51149BD
:100310004A68114B1A40D0E900342344D0E9024521
:1003200004EB0514234444692344C4692344048C26
:1003300003EB8443446A234490F8284003EB44636E
:100340001A444A60028B4A61428BCA600069C862E3
:1003500030BD0000008008400300FBF1034A5168F3
:1003600021F4F87101EB00105060704700800840E4
:100370000248416841F00201416070470080084036
:1003800010B5FFF7BDFFC0F30B0010BD10B5042082
:10039000FFF7E4FFBDE81040FFF7EABF014800693E
:1003A00070470000600300200348C068B0F5FA7F82
:1003B00000D200207047000060030020D0E9021244
:1003C00011440379026902EB03721144426911443A
:1003D0000268008B01EB405010440349034A136844
:1003E0008B431844106070470000FFF10080084004
:1003F000F0B595B00EA800F0BBF84FF400301090A7
:1004000040001190400012900EA8FFF7D7FF03A8FC
:1004100000F046F90420039040020A904FF4104087
:100420000C9007200D9003A8FFF71EFF00240A94EC
:1004300003A8FFF76BFF0120FFF7F8FE0120FFF78D
:1004400051FF684601F09CFC1C20ADF80000694695
:100450000D4801F0B7FB0D480460446044F6206687
:10046000866043F23037C7607510056100F0DBF934
:1004700006481C30046044608660C760056100F077
:10048000D2F915B0F0BD000000000C403808002083
:1004900006480749026A0A60426A4A60826A8A60BC
:1004A000C06AC860084600F0BEB90000F81000201D
:1004B000540800200548064902680A6242684A62F8
:1004C00082688A62C068C8627047000054080020D1
:1004D000F81000200648074902690A6042694A602C
:1004E00082698A60C069C860084600F09CB9000053
:1004F000F8100020380800200548064902680A6103
:1005000042684A6182688A61C068C86170470000B9
:1005100038080020F8100020014800F084B90000DD
:1005200054080020014800F07EB90000380800207F
:10053000012805D0044801600449496841607047BA
:1005400001480838F7E700005C080020600300203D
:10055000012805D00448016004498968416070475A
:1005600001480838F7E70000400800206003002039
:100570000021016041608160C16001614161816170
:100580007047000070B500250220FFF799FE002497
:10059000FFF7A0FE0420FFF757FE0028FAD0FFF770
:1005A0005DFEC0F30B000544641CE4B2042CEFD3E1
:1005B000054C65602946054801F09AF8002800DAE4
:1005C0000020206170BD000060030020540800205E
:1005D00010B51E4C002020701D480078002819D14D
:1005E000206940F66E71884201D80120207000F029
:1005F00015FAE8B100F02CFA21696438884205DC6C
:1006000000F020FA21696430884203DA207840F053
:1006100002002070207800F00201002001F0B6FAFC
:100620002078BDE8104000F00101012001F0AEBAD1
:1006300000F000FA2169081A00D540426428E9DD7B
:10064000207840F002002070E4E700006003002002
:100650008403002070B500250320FFF731FE00243D
:10066000FFF738FE0420FFF7EFFD0028FAD0FFF770
:10067000F5FDC0F30B000544641CE4B2042CEFD379
:10068000054CA5602946054801F032F8002800DA3B
:100690000020E06070BD00006003002038080020EA
:1006A0000021016041608160C1600161416101839D
:1006B0004183C161016241628162704772B618482C
:1006C00001F076FA174801F073FA174801F070FA52
:1006D000164801F06DFA164801F06AFA154801F063
:1006E00067FA002000F0FAF802F0E2F81248007809
:1006F00080B100F08DFAFFF7DDFEFFF7FDFE00F0A0
:1007000035FF01F0F5F901F0EBFD00F0EFFD01F030
:1007100009F8FCE700F09AFA00F0AEFDF7E70000F8
:1007200000800A4000000B4000800B4000000C409D
:1007300000800C4000800E4084030020054A1168B0
:10074000002802D041F0080001E021F0080010600C
:10075000704700000080094010B5064A116821F07A
:10076000F601D0E90034806823440844184410603E
:1007700010BD0000008009400021016041608160DF
:1007800070470000054A1168002802D041F00100BE
:1007900001E021F001001060704700000080094076
:1007A00003490968014201D00120704700207047C9
:1007B0000080094000B5014600F00CF8084201D065
:1007C000012000BD002000BD014880687047000086
:1007D00000800940014840687047000000800940DF
:1007E000054A1168002802D041F4005001E021F4CC
:1007F00000501060704700000080094010B5064AA4
:10080000116821F47061D0E9003480682344084401
:100810001844106010BD00000080094000210160F4
:1008200041608160704700B502465168D068411A46
:1008300013689068C31A1069584300F077FC506140
:1008400013691168594353684343C81A906100BD46
:100850002DE9F04100245B1E0FFA83F8531A1DB2F4
:100860004346671E002D03DA6D422DB2BC4601E0FF
:100870004FF0010C002B02DA5B421BB200E00127B3
:100880006D002DB25B001EB20180AE4213DDA5EB00
:10089000660212B20BE0002A03DB614409B2921B2C
:1008A00012B2E3191CB22A4412B220F814104445C3
:1008B000F1D1BDE8F081A6EB65031BB20BE0002B84
:1008C00003DB3C4424B25B1B1BB2614409B23344DA
:1008D0001BB220F814109142F1D1EAE7054A1168E1
:1008E000002802D041F0080001E021F0080010606B
:1008F0007047000000000940034A116821F002011E
:1009000008441060704700000000094001498860F9
:10091000704700000000094010B50C480C490268FF
:100920000A6042684A6082688A60C068C860084697
:10093000FFF779FF00F01EF805482438017B491EB7
:1009400050F82100BDE8104000F0BCBAF8100020BB
:10095000CC08002010B50648FFF765FF044824388E
:10096000017B491E50F82100BDE8104000F0AABAF2
:10097000CC08002070B5224D05F12400696900F013
:10098000A9FE044605F12400A96900F0A3FE40F683
:10099000AD71002C01DA002402E08C4200DD0C462F
:1009A000002801DA002002E0884200DD0846A97B29
:1009B0004FF47A7359B101291AD0022917D122B202
:1009C00001B2BDE870400E484030FFF741BF002142
:1009D0000B4D4FF4FA764035B14201D2224600E089
:1009E000024625F81120491C89B29942F4D370BD02
:1009F00021B202B2BDE8704001484030FFF728BF85
:100A0000A80800200148007B70470000A8080020CB
:100A10000148006A70470000A80800200148407B98
:100A200070470000A80800200148006970470000D6
:100A3000A80800200248017B491E50F82100704799
:100A4000A80800200148806970470000A80800201D
:100A50000148406970470000A80800200148C069AB
:100A600070470000A80800200148807B7047000004
:100A7000A808002010B586B00E4C204601F07BFD82
:100A8000684601F062FD40F23F11ADF802100A2104
:100A9000ADF804106946204601F03CFD00212046D7
:100AA00001F0AEFC01220221204601F05CFD06B0FF
:100AB00010BD0000000007403EB5684601F060F937
:100AC0000125ADF800506946214801F07BF802206D
:100AD000FFF712FF0120FFF701FF0020FFF716FFCD
:100AE000FFF7C8FF00F002FA01210A2000F03EFAE9
:100AF0000020184C642144F82010401CC0B2022889
:100B0000F9D3257300216173A1734FF47A702061CA
:100B10008000606144F62062A2610A20E0612562E3
:100B20000C48243001604160826040F6CC41C160D5
:100B300051100161FFF777FEFFF71CFF206900F0FD
:100B4000B1F8207B401E54F8200000F0BBF93EBDF8
:100B500000800C40A808002001490120C87170479E
:100B60008803002010B5084C607B01280BD100F0F1
:100B7000A3F900F00DF80120206200F095F9034977
:100B80004FF48060486110BDA8080020008002403A
:100B90000749886A20F4806088620648064A13681C
:100BA00003605368436092688260081588627047EA
:100BB00000800240A0040020B810002010B50020E2
:100BC0001149124C51F8202044F82020401CC0B29A
:100BD0000228F7D3087A2073487AA073C868206186
:100BE000086960614869A0618869E061FFF7C2FE39
:100BF000206900F057F8207B401E54F82000BDE823
:100C0000104000F05FB90000D0100020A8080020BC
:100C10000548064902680A6042684A6082688A603C
:100C2000C068C86070470000CC080020F8100020A1
:100C3000012806D00448016003492C3989684160C5
:100C4000704701480838F6E7D408002000200B4917
:100C50000B4A51F8203042F82030401CC0B2022824
:100C6000F7D3087B1072887B50720869D06048699E
:100C7000106188695061C86990617047A8080020B8
:100C8000D010002010B5012807D040F6CC442046F3
:100C9000FFF73CFE0248846010BD40F28F24F6E767
:100CA000A8080020642148434FF47A71B0FBF1F1A9
:100CB0000448491E816001688268914201D3002185
:100CC000016070470000074070B50E4C617B8142A7
:100CD00017D001280BD00020607300F0EDF8207BC6
:100CE000401E54F82000BDE8704000F0EBB801252C
:100CF0006573FFF74DFF256200F0D6F80249A802A0
:100D0000486170BDA80800200080024031B5064A45
:100D10006421684602F045FF0446044900980861D2
:100D2000FFF7C0FF204638BD20A10700A80800201B
:100D300031B502220121684602F041FF04460098C5
:100D40000549C0B208734A7B22B9401E51F8200001
:100D500000F0B8F8204638BDA808002031B545F6A7
:100D6000C0526421684602F01CFF04460549009801
:100D70000A7B521E41F82200497B09B900F0A2F813
:100D8000204638BDA808002031B545F6C052642180
:100D9000684602F006FF05460B4A0099916172B65B
:100DA0000A48C068C0F3000400F086F862B6FFF796
:100DB000E1FDFFF7EDFE2CB100F076F8044A4FF4A8
:100DC00080615161284638BDA80800200000074016
:100DD0000080024031B545F6C0526421684602F0F9
:100DE000E0FE05460B4A0099516172B60A48C06898
:100DF000C0F3000400F060F862B6FFF7BBFDFFF738
:100E0000C7FE2CB100F050F8044A4FF480615161E4
:100E1000284638BDA8080020000007400080024096
:100E200031B50F4A0121684602F0C9FE05460D4C56
:100E3000607B012803D100F03FF8FFF7A9FE00997D
:100E400001B90121E16101202062607B012805D107
:100E500000F02AF804494FF480604861284638BD04
:100E60009F860100A80800200080024010B50B49B1
:100E7000887372B60A48C068C0F3000400F01CF81A
:100E800062B6FFF777FDFFF783FE002C05D000F078
:100E90000BF804494FF48060486110BDA808002099
:100EA000000007400080024002480021016001214B
:100EB00001F026BB000007400021014801F020BBE3
:100EC0000000074010B50146074800F003FC002869
:100ED00001DA002004E040F6AD71884200DD0846EA
:100EE000BDE81040FFF712BDCC08002000B58FB060
:100EF0001748019017480290C00503904FF04040FA
:100F000004904FF088500590012106914FF47A70BB
:100F10000790002008908A0409924A050A9201AAC3
:100F20000B920C900D908DF838108DF839008DF8DB
:100F30003A000BA90A2001F0DFFD074807490268C3
:100F40000A6042684A60806888600FB000BD000097
:100F5000E808002008000940A0040020B810002084
:100F600001490120C864704700800240012282408C
:100F70000348012901D0C2627047826270470000B5
:100F80000080024010B583680268B3F1406F26D03C
:100F90008469641E9B0E9C4022440A604269042AB4
:100FA0001FD0C268B2F1404F1FD083695B1E920F01
:100FB000934042681A444A60D0E903231A43446AC2
:100FC000836823431A43036A1A43C3691A43836934
:100FD00040695B1E42EA031202438A6010BD0A6048
:100FE000DCE742680C324A60E6E742684A60E3E7C1
:100FF00006480021416081604161491EC161416232
:10100000C1624163C1630121C16470470080024035
:1010100010B501228240134CD2B2092920D2DFE858
:1010200001F01F05090D101316191C00206800F0AF
:10103000010010BDE06C00F0010010BDA06A10407E
:1010400010BD206A104010BD2069104010BDA0697D
:10105000104010BD206B104010BDA06B104010BDA3
:10106000002010BD0080024010B5144A906A40056F
:10107000002817DB124813490B6803604B68436074
:1010800089688160101590620F49D1E9072090426C
:1010900002D2401C086205E000210C4801F030FA41
:1010A000FFF75AFD02210020FFF7B2FF012803D10C
:1010B000BDE81040FFF754BF10BD000000800240A3
:1010C000A0040020B8100020A8080020000007405D
:1010D00002494968081AC00F70470000001000E07C
:1010E00000B500F01BF802461046FFF7F1FF00289C
:1010F000FAD100BD07480168C9070AD1016841F06B
:1011000080710160044800214160016841F00101E3
:1011100001607047FCED00E0001000E00249496802
:1011200001EB401070470000001000E0400090FB11
:10113000F1F0002801DB012101E04FF0FF3108440C
:1011400000EBD070401070472DE9F05F4FF00A08B7
:101150002B4F4FF0000AC7F804A000254FF000699C
:10116000032D02D209EB850B04E0786828B13878AA
:1011700009EB800B234E00240AE000242BE0012120
:101180005846FFF744F801C60BF1100B641CA4B2DB
:101190004445F4D34FF6FF701A4C002604F1200B9F
:1011A00014F8011B01F009FA5C4503D0761CB6B2B5
:1011B000282EF5D313490A8C824207D1C869796871
:1011C000884201D978603D70012400E000246D1C44
:1011D000ADB2042DC4D33CB13878022802D0401CF3
:1011E000387005E00020FBE787F800A00120786058
:1011F0003A7801214846FFF70FF82046BDE8F09FF6
:1012000098030020D01000202DE9F04107464FF050
:101210001608174E174D002407E001213046FEF74F
:10122000F6FF01C51036641CA4B24445F5D34FF651
:10123000FF70104C002504F1520614F8011B01F058
:10124000BCF9B44203D06D1CADB2582DF5D3094999
:10125000B1F85210814201D1012400E0002427B1ED
:1012600001210322C806FEF7D7FF2046BDE8F08122
:101270000C000008F81000202DE9F047DFF864802A
:10128000DFF86490D8F80400401CC9F81C00282737
:101290004FF6FF704C46002504F1200607E014F8D5
:1012A000011B01F08AF9B44203D06D1CADB2BD42FE
:1012B000F5D3A9F820000C4D98F800004FF000611C
:1012C00001EB8006002407E004CD01213046FEF743
:1012D000A8FF1036641CA4B2B4EB970FF4D3BDE89A
:1012E000F087000098030020D01000202DE9F04185
:1012F00058274FF6FF70114C002504F1520607E005
:1013000014F8011B01F059F9B44203D06D1CADB2C1
:10131000BD42F5D30949A1F852000D46084E0024FC
:1013200007E004CD01213046FEF77BFF1036641C38
:10133000A4B2B4EB970FF4D3BDE8F081F81000200D
:101340000C0000083EB5684600F01AFD6020ADF8BC
:10135000000001208DF80A0000248DF802408DF86D
:1013600003008DF809006946024800F02BFC024892
:10137000C4803EBD00000C40580300201549087889
:101380008006000E0870144A13689B06002B02DAD0
:1013900040F0010008701068400603D5087840F05E
:1013A00002000870087800F00F000F280CD2DFE868
:1013B00000F00B0C080B080B0B0C0C0B0B080B08AC
:1013C0000C00C888401EC8807047C888401CC88070
:1013D000704700005803002000000C4013494A8861
:1013E000C88820F003004880801A00B280108880EE
:1013F000042802DA10F1040F04DC00EB8000800006
:1014000088807047032802DA10F1030F04DC00EB38
:101410008000400088807047022802DA10F1020F35
:10142000F9DC00EB80008880704700005803002042
:1014300010B50E480E49026C0A60426C4A60826C1C
:101440008A60C26CCA601C31026B0A60426B4A60DF
:10145000826B8A60C06BC8600548FFF7E4F90448F6
:10146000BDE810401C30FFF7DEB90000F810002086
:101470007008002010B50448FFF7D5F90248BDE810
:1014800010401C30FFF7CFB97008002001484068B9
:101490007047000074030020014800787047000086
:1014A0007403002070B588B02C4E0021304600F047
:1014B000D9FD04A800F020FE1F21ADF810100A206D
:1014C000ADF812000024ADF814400C21ADF8161050
:1014D0002021ADF81C100225ADF81E5004A930469D
:1014E00000F0F2FD0121304600F0DAFD01A800F025
:1014F00047FC0720ADF8040001208DF80E008DF8A0
:101500000C508DF80D508DF80600154D01A9284698
:1015100000F058FB0821ADF804108DF8064001A931
:10152000284600F04FFB0F48046044600E4981607C
:1015300041F67855C5604FF47A710161FFF773F990
:1015400008481C300460446049F640418160C56031
:1015500089100161FFF767F908B070BD0000044011
:1015600000800E4070080020801A06000A490B48CF
:101570000A6802644A6842648A688264C968C1640D
:1015800005491C310A6802634A6842638A688263BB
:10159000C968C1637047000070080020F81000207F
:1015A00030B50C4B0A4D0128D3E9022305F11C0488
:1015B00004D0022808D0A960EA6030BD002028606D
:1015C0006A602060636030BDA160E36030BD0000F0
:1015D000700800207403002070B5002001F0B4F8FA
:1015E00005466420FFF77CFD022001F0ADF8154CA4
:1015F000A0606420FFF774FD012001F0A5F8A16848
:10160000491BA160411BE1600F4800F071F8606068
:1016100049F6404108444900884202D80020207021
:1016200070BD0948A1681C3800F062F86060074985
:1016300008444900884202D80120207070BD022071
:10164000207070BD740300208C080020801A0600F2
:101650000948002102780948002A08D0084AC260D7
:10166000017001224270C170C17101727047054A58
:10167000C2600170F5E700008403002088030020A9
:10168000552D00080134000870B5114CE578207A1A
:10169000142801D2401C00E00020C0B220720C28A7
:1016A00001D2012000E0002060720026A671E079DE
:1016B00010B1E6710820A071E0688047A07908B1F8
:1016C00000F026FDE078854200D0267270BD000053
:1016D0008803002002694A438169521A4169104611
:1016E000FFF724BD01480068704700002003002078
:1016F00042694A4381690A4401691046FFF716BDF1
:1017000002494CF6CC40086070470000008006405B
:101710000349C968014201D0012070470020704789
:101720000080064002494AF6AA200860704700007F
:101730000080064001494860704700000080064074
:101740000149886070470000008006400149002080
:101750000860704700800640024945F25550086015
:10176000704700000080064005480021016041608C
:10177000C1618160C16001614161816170470000A8
:101780000C0800202DE9F041184F0020386000249B
:101790003D1D012606FA04F0C0B202F0C5F914207E
:1017A000FFF79EFC0021002055F83020136805EB60
:1017B000C00292F804C0324606FA0CFC13EA0C0F81
:1017C00001D0824000E000221143401CC0B2052835
:1017D000EAD33868400108433860641CE4B2042C42
:1017E000D8D3BDE8F041002002F09EB920030020CC
:1017F0000121002002F0F1B9014800787047000093
:101800004C030020FEB5684600F0BAFA7020ADF82F
:10181000000001268DF80A608DF8026002208DF824
:101820000900414D6946284600F0CCF90F21ADF87A
:10183000001000248DF803408DF804608DF80240FC
:101840006946284600F0BEF9684600F099FA8DF81E
:101850000A608DF804608DF80240344D05EBC40039
:10186000017906FA01F0ADF8000055F83400694638
:1018700000F0A8F9641CE4B2052CEFD30021062087
:1018800002F042F90021052002F03EF90021042077
:1018900002F03AF94CF25030FFF722FC012002F03E
:1018A0004FF9032002F0C1F93220FFF719FC0320A1
:1018B00002F0BBF93220FFF713FC032002F0B5F968
:1018C0003220FFF70DFC022002F0AFF93220FFF7C3
:1018D00007FC2A21002002F080F90821002002F0F4
:1018E0007CF90121002002F078F94221002002F069
:1018F00074F90C21002002F070F90021084600F074
:1019000013F90BA000F0D8F80121002000F00CF929
:101910000CA000F0D1F80321002000F005F90DA083
:1019200000F0CAF8FEBD000000800A402403002039
:10193000CAE0EBE8E1F0E0F2EEF020F2EEEAEEE2EF
:10194000EEE900002020EFE5F2EBE820302D323008
:10195000ECC00000C2E5F0F1E8FF20312E300000BD
:101960002DE9F04194B00EA800F0EFFD1F20ADF876
:101970003A004FF47A70ADF83C00284F0EA9384673
:1019800000F0C8FD08A800F0ADFD0025ADF822501C
:101990004FF44060ADF82A004FF00808ADF83280EF
:1019A0000224ADF8204008A9384600F053FD03A8F2
:1019B00000F08DFDADF81450ADF816400126ADF8DD
:1019C0001860ADF80C4003A9384600F063FDBD6116
:1019D0000021384600F014FD0121384600F090FD4A
:1019E0000F4F0821384600F0AFF9684600F0C8F9FB
:1019F000ADF800808DF808408DF80A608DF802601F
:101A00008DF809406946384600F0DCF80548457015
:101A10000A2000F077F814B0BDE8F081008007409C
:101A200000800C404C03002070B505460C4604E0D5
:101A300015F8011B012002F0D0F82000A4F10104E8
:101A4000E4B2F5D170BD70B514461D4600F06CF8D7
:101A500029462046BDE87040FFF7E6BF70B5144D3B
:101A60006878411CCCB2002804D0012805D000249D
:101A70006C7070BDFEF78AFCFAE7FEF781FCC0F5DA
:101A8000805080B26988081A0A49002802DA0020CA
:101A900088610BE000EB80004000C0F5FA6032285E
:101AA00000DA322088608868400888610024DFE717
:101AB0004C0300200080074010B5044603E0641C7E
:101AC000012002F08AF821780029F8D110BD10B564
:101AD000144600F029F82046BDE81040FFF7ECBF9F
:101AE000024890F8500000F00DB80000F8100020F7
:101AF00002480349007881F8500070474C030020E9
:101B0000F810002001B514220021684602F049F8BF
:101B10000099044AC9B211700A31642359435180B3
:101B200008BD00004C030020132800D90020012923
:101B300004D0022905D0032908D105E04030C0B205
:101B400004E01430C0B201E05430C0B240F0800173
:101B5000002002F042B800003EB50B4C03212046A5
:101B600000F0F2F8684600F00BF90321ADF8001020
:101B700001218DF80A108DF802108DF809106946C0
:101B8000204600F01FF83EBD00800B40002801D029
:101B9000012809D101228240044811B1114600F008
:101BA000E1B8114600F0D0B87047000000800B404B
:101BB0000021C1600161416001608160416181611A
:101BC000C16170472DE9FF4FD0F804908768D0F8C5
:101BD0000CA0D0F81080D0F814C082690192C269BC
:101BE00000920022012303254FF001160C885EE0CD
:101BF0005FEAC47B56D091F802B029EA03090BFAD8
:101C000002FB49EA0B0991F808E04FEA420B0EFA91
:101C10000BFEAF434EEA0707CDF80CB091F80AB0BF
:101C20002AEA030A0BFA02FB4AEA0B0A91F803E0DC
:101C300002F1100B0EFA0BFECDF808B091F804B0CB
:101C400028EA060848EA0E080BFA02FB48EA0B08E5
:101C500091F805E0DDF808B02CEA060C0EFA0BFE50
:101C600091F806B04CEA0E0C0BFA02FB4CEA0B0C96
:101C700091F809E0DDF80CB00EFA0BFEDDF804B0C7
:101C80002BEA050B4EEA0B0ECDF804E0DDF800B0B0
:101C900091F807E02BEA030B0EFA02FE4BEA0E0B5B
:101CA000CDF800B05B00AD007600521C6408002C3B
:101CB0009ED12449884202D14FF01F0101E04FF02C
:101CC000000129EA0109C0F8049002D14FF01F0178
:101CD00001E04FF0000127EA0107876002D14FF0D1
:101CE0001F0101E04FF000012AEA010AC0F80CA030
:101CF00002D14FF01F0101E04FF0000128EA010876
:101D0000C0F8108002D14FF01F0101E04FF0000138
:101D10002CEA010CC0F814C002D14FF01F0101E001
:101D20004FF00001019A22EA0102826102D14FF0D4
:101D30001F0101E04FF00001009A22EA0102C26196
:101D4000BDE8FF8F00000B400368054A904201D1B7
:101D50001F2200E000220A43934303607047000003
:101D600000000B400368054A904201D11F2200E0A9
:101D7000002293430B4303607047000000000B40B8
:101D80004FF6FF71018000218170C17001714171B6
:101D90008171C171017241728172704730B589B031
:101DA00006A8FEF73BFD4FF48070069040000790B8
:101DB00006A8FEF723FD03A8FEF7DEFC0020039033
:101DC00004906020059003A8FEF7C6FC0120FEF7F2
:101DD000D9FC0120FEF7B2FC4FF480542046FEF7F8
:101DE000DFFC0128FAD16846FFF7CAFF0420ADF8EE
:101DF000000069461148FFF7E5FE4CF250342046DA
:101E0000FFF78CF9054608E00120FEF7D3FC012816
:101E100003D12046FFF782F905462846FFF758F917
:101E20000028F1D1FEF7D0FC0120FEF7D9FC0448D0
:101E30004FF40021016009B030BD000000800C406B
:101E400000E100E02DE9F05F002500260027A8460C
:101E5000214CDFF888B0DBF800906FEA090AFFF741
:101E600041FCCBF80000C243691E81450AD0DBF873
:101E70000430192B01D20D4600E00E460021CBF8AC
:101E800004100EE0DBF804301A2B02D05B1CCBF8F8
:101E90000430DBF804300F2B00D30F46192B00D190
:101EA0008846206000EA0A016160E3694B40E36113
:101EB0004AEA070A0AEA000AC4F808A002EA090284
:101EC000E26002EA050121613240626100EA080035
:101ED000A061BDE8F09F00000C0800205003002026
:101EE0000149086070470000B4024042034A51694A
:101EF00021F4706141EA0020506170470000024007
:101F0000034A516921F033010143516170470000D8
:101F1000000002400149086070470000880040420C
:101F20000B4AD36823F003030343D360506820F4C3
:101F3000706040EA012050600648D0F888100029FF
:101F400004D0012140F88C1F00210160704700007F
:101F5000000002400000404208B5002000904FF40D
:101F6000C063212000F02AF80099491C00910099D3
:101F7000994201D20028F4D0212000F01FF808B1C6
:101F8000012008BD002008BD01490860704700001D
:101F900088014042034AD16821F0F00141EA001073
:101FA000D060704700000240034AD16821F44071BC
:101FB0000143D1607047000000000240C0F34211AD
:101FC000012909D00749C96B00F01F020120904088
:101FD000084204D00120704703490968F4E7002053
:101FE0007047000000800D400000024009498A68E7
:101FF00022F003028A60012806D0022803D18868F3
:1020000040F0030088607047886840F001008860F5
:10201000704700000000024008B5002000904FF417
:10202000C0632220FFF7CAFF0099491C0091009964
:10203000994201D20028F4D02220FFF7BFFF08B157
:10204000012008BD002008BD054A002903D0D16940
:102050000143D1617047D1698143D161704700006C
:102060000000024010B50B4BDA6A0B4CA04205D1C0
:1020700042F0807020F0FF020A4308E0074CA042C3
:1020800005D142F0007020F47F4040EA0122DA627C
:1020900010BD0000000002400000044000000A40A3
:1020A000002904D0416841F0020141607047416855
:1020B0004FF6FD72114041607047C068084201D080
:1020C000012070470020704710B54A8802610A89D4
:1020D0004B890C881A448B8903EB04231A44CB8860
:1020E0001A440260CA8989881144416010BD806821
:1020F00080B2704781607047002181800722C280D2
:10210000418101818181022242800180704700006B
:1021100014498A78002A0AD0134A092807D2DFE82E
:1021200000F0060507090D1115191D00CA6070475A
:10213000CA6070470C480830C86070470A480C38BD
:10214000C860704708480838C860704706481830AB
:10215000C860704704482830C86070470248103093
:10216000C8607047A00300206E3C000801488078DA
:1021700070470000A0030020F0B595B00FA800F054
:10218000E4F91F20ADF83E004FF47A70ADF840003E
:10219000274F0FA9384600F0BDF909A800F0A2F9B1
:1021A0000024ADF826404FF44060ADF82E00082022
:1021B000ADF83600ADF8244009A9384600F04AF9D8
:1021C00004A800F084F9ADF812400226ADF81460BE
:1021D0000125ADF81650ADF8104004A9384600F0BE
:1021E00059F93C610021384600F00AF901213846CE
:1021F00000F086F90F4F04213846FFF7A5FD01A82E
:10220000FFF7BEFD0420ADF804008DF80C608DF8DA
:102210000E508DF806508DF80D6001A93846FFF775
:10222000D1FC05480470C460857015B0F0BD000095
:102230000000084000800B40A00300202DE9F04181
:102240000020214D0026E968002900D02E700127CA
:1022500034E0297821B101290BD002292ED126E0C2
:10226000E96821B1A960EE606E702F7026E0012050
:1022700024E06878411C6970A96801EB80046088DB
:1022800078B1208828B101F077FC012001F068FCCA
:1022900002E0002001F064FC6088A8800220287021
:1022A00003E02E70002001F05BFC012006E0A9880D
:1022B000491E0904090CA98004D001200028C8D0B7
:1022C000BDE8F0812F70F9E7A00300200248034920
:1022D00090F8510088707047F8100020A00300208B
:1022E00002480349807881F851007047A00300201C
:1022F000F81000200149887070470000A0030020FA
:1023000010B5054800F08DFCFFF7A8FBFFF736F885
:10231000BDE81040FFF792BF2C08002010B5184B05
:10232000D868184C8007002801DA204600E02046D3
:10233000D968C90700D01448D968490704D5596835
:10234000C1F30321491C4843D968104AC1F3012154
:1023500039B1012907D002290DD049F6404010605B
:1023600010BD146010BDD968C1F30311491CB0FB46
:10237000F1F0106010BD4FF40040106010BD00007F
:102380000000024000127A0000093D001C030020FA
:1023900008480749C161C1680021C16042684160C5
:1023A000826881600269016142694161FFF7B6BFDD
:1023B00010000008000002400E484FF47A710068D7
:1023C000B0FBF1F10020B1F1807F0BD221F07F4210
:1023D0004FF0E021521E4A61074BE0221A708861DB
:1023E00007220A6105490860486088601320C88098
:1023F000704700001C03002023ED00E02C080020A3
:1024000010B5104B5A6A104CA04205D122F0FF00C3
:10241000084340F0807212E00C4CA04206D122F436
:102420007F4040EA012040F0007208E0084CA042E2
:1024300005D122F47F0040EA014040F080625A62F8
:1024400010BD00000000024000000740008007406F
:102450000000084010B54A88CB884C891A440B8983
:1024600023441A448B8902EB8312CB891A440B8ACA
:102470001A448B88002B01D002F500520B8800EB28
:1024800083031A62488ACA8A1044898A01B1001DEE
:10249000186610BD10B5CA884B880C8902EB031270
:1024A0008B889B0003EB04331A444B8902EB832295
:1024B0008B8902EB03220B8800EB830002630A8AFC
:1024C0004B8AC9891A4402EB0121016410BD002125
:1024D00041808180C180018141818181C1810182EE
:1024E000418270470021018041808180C18001814B
:1024F00041818181C181018241828182C182704793
:10250000C268002902D042F0010101E022F001017D
:10251000C160704710B50A8802604A8842608A88A4
:102520008260CA880B898C891A444B8923441A44D7
:10253000CB891A44C2604A8A8B8A1A44CB8A098A98
:1025400003EB01111144016510BD002101804180A0
:102550008180C180018141818181C181018241826B
:102560008182C1827047C36D002A01D00B4300E015
:102570008B43C36570470021C16001604160816089
:10258000016241628162C162016341638163C1632F
:10259000016641668166C166016141618161C16117
:1025A000016741678167C167016441648164C164F7
:1025B000016541658165C1657047484000214AF267
:1025C0000102C30702D082EA500000E04008491C23
:1025D0000829F6DB704730B585B0FEF75DFF04468D
:1025E000FEF754FF049003256CB1022104A800F00B
:1025F00081FB04230A2201A90095049800F064F9E4
:10260000022C14D018E0012104A800F073FB04236D
:102610000A2201A90095049800F056F905230DF14E
:10262000060203210D20FFF70EFA05B030BD2A2067
:102630008DF808008DF80700052301AA03210D205D
:10264000FFF701FAF1E7000010B5FFF7D1F800211C
:10265000BDE8104001A20846FFF739BAC8F1F2EE12
:10266000F7EDE8EA20F2EEEAE03A000010B5FFF7F5
:10267000BFF80021BDE8104001A20846FFF727BAC5
:10268000C0ECEFE5F0ECE5F2F03A000010B5FFF732
:10269000AFF80021BDE8104001A20846FFF717BAC5
:1026A000D1E8F1F2E5ECEDFBE520EDE0F1F2F0EE42
:1026B000E9EAE83A0000000010B5214901224A7118
:1026C00020484FF000034068C40701D00B7110BDD3
:1026D000040401D50A7110BDC20302D5022008719D
:1026E00010BD820302D50320087110BD420502D53A
:1026F0000420087110BD020502D50520087110BD27
:10270000C20402D50620087110BD820602D507203A
:10271000087110BD420602D50820087110BD0206DE
:1027200002D50920087110BD820702D50A20087160
:1027300010BD400702D50B20087110BD4B7110BDB4
:10274000880300200C0800202DE9F041002500F04E
:10275000070040F0080040F0100700240A4E3946F8
:102760003046FFF7C7FC04213046FFF7A6FC0128DE
:10277000F9D13046FFF7BBFC0544641CE4B2042CDD
:10278000EDD32846BDE8F081000004400246917A6E
:10279000506892F90820002A07DD891AC9B204E0BE
:1027A00000EB80004000491EC9B20029F8D17047F3
:1027B0000248006800F00F007047000000800A40E7
:1027C00070B5FEF715FC0E484FF0FF3404628461CB
:1027D00001210D052846FFF737FC0A4A0021516206
:1027E000094A51622846FFF72FFC084AC2F8FC410B
:1027F000C2F8FC4000F0B0F92020D06770BD0000A6
:10280000008002400000044000000A4084E000E034
:1028100010B50446FEF774FFFEF79EFF0020FEF79A
:1028200089FF0120FEF774FF0128FAD16420B4FB70
:10283000F0F0FEF785FFBDE81040FEF787BF00000F
:1028400010B50120FFF7D2FBFFF7E6FB012800D00F
:10285000FEE703210220FFF763FB0120FFF75AFB8D
:10286000FFF77AFB012800D0FEE70020FFF792FB7C
:102870000120FFF789FB4FF48070FFF795FB2020C4
:10288000FFF73EFB0020FFF731FB0120FFF728FB9D
:10289000FFF744FD01210448FFF7D6FBBDE81040D7
:1028A00001210248FFF7D0BB0000E02328E10F0020
:1028B00010B50020FFF778FB0020FFF797FBBDE87D
:1028C00010400020FFF726BB2DE9F0410446069F8B
:1028D0004FF0000C0020002A0BD0002C02DA6442DA
:1028E0004FF0010C1144491E150605D522F0800257
:1028F00007E00020BDE8F081002501F80159521ED3
:10290000D2B232B14FF02E08B84204D101F8018999
:102910000DE00020EEE725460A2694FBF6F406FBC0
:102920001455303501F801590BB15B1EDBB2401C68
:10293000C0B2521ED2B20CB1002AE5D130240DE053
:10294000B84202D101F8018904E001F801490BB154
:102950005B1EDBB2401CC0B2521ED2B20BB1002AC9
:10296000EED14AB1BCF1000F06D02D2301F8013998
:10297000401CC0B2521ED2B2202301E001F801393E
:102980001400A2F10102D2B2F8D1B3E7FFF758FF69
:10299000FFF716FFFEF7AEFB4B4F3846FEF7BEFBC8
:1029A0008046FEF72FFFFEF7DBFFFEF7DDFEFFF7A9
:1029B000D3F8FEF7C7FCFDF71BFDFEF773FDFEF72E
:1029C0007BF8FFF7D9FBFEF7DDFEFEF78BFE3F4EEF
:1029D000C0F3C040307000B10120FEF715FC044682
:1029E0005CB1FDF799FFFDF753FDFDF773FDFEF7B1
:1029F0001FFDFFF775F8FFF769FC307840B9FEF767
:102A0000A3FB28B1FEF76EFE800401D4FEF7D6F8D2
:102A10002F4D002028606860A8600420E880A87816
:102A200040F00100A870FFF7B9F9FFF7C5FC404678
:102A3000FEF74EFB0028FAD1307804430ED1FEF7A2
:102A4000D7FE002123A20846FFF741F824A2012166
:102A50000020FFF73CF83846FEF742FB46F2A8108C
:102A6000FFF7D6FEFEF7F4FD224CA07840F00100FF
:102A7000A0700120FFF74CFB20788107FCD572B6CF
:102A800020F00200207062B6FEF74CFE104800F005
:102A9000C8F82878810702D43178012906D120F0BE
:102AA00002002870FDF7D6FDFEF796FDFDF76AFDE2
:102AB000FDF78EFDFEF766FEFFF7C4F9FEF78EFC0C
:102AC000FEF7E2FDD8E7000040420F00840300203B
:102AD00000080020CDE5EEE1F5EEE4E8ECE00000D2
:102AE0002020202020EAE0EBE8E1F0EEE2EAE0211D
:102AF000000000002C0800202DE9F04107460D469B
:102B0000134E0124BC40F4622868002804D0114907
:102B100001EB0711FEF736FA686820B1F16801EBA6
:102B20000711FEF72FFA687B01280AD0F46174625E
:102B3000A87B40B13463287B012806D0F463BDE84C
:102B4000F081B461F3E77463F5E7B463F7E700007D
:102B500000800240000400200348024981602121D6
:102B600041607047000400200080024070B50346B9
:102B70000025092927D829B9586818B993F90800F8
:102B8000002845DB93F90840987A844219DA5E6898
:102B900006EB8600400008445860587A401C587282
:102BA000002C01DB601C18721846FFF7EFFD196856
:102BB00088422DD95E601C72587A401E58720125D9
:102BC00026E0012524E000220A2902D00B290FD09B
:102BD0001EE0987A50B193F90800002818DA1A72AA
:102BE0005868A8B9587A401C587211E001250FE0C6
:102BF00093F9080070B159680A22B1FBF2F15960EB
:102C0000597A29B1491E5972002801DD401E1872F7
:102C1000284670BDFF20187258680028F8D15A72F3
:102C2000F6E710B58278D10745D08188C3889942EC
:102C30000CD3930702D522F001028270027842F091
:102C4000010242F002020270002205E0027822F046
:102C5000010202704A1C92B2037823F0080323F0A9
:102C6000100303700489A14207D143F0080343F025
:102C7000100383F02003037003E002D943F0100334
:102C80000370037823F0400323F08003037044892A
:102C9000A1420BD143F0400141F080010170437823
:102CA0004FF0010121EA0301417003E002D943F032
:102CB00080010170828010BD10B50520FEF710FA6A
:102CC0000121062000F020FF0A20FEF709FAFFF795
:102CD0006FFD04460021062000F016FF0520FEF7D8
:102CE000FFF9204610BD00224260FF2303724272AA
:102CF0008172704718B504462068002800DA404207
:102D00000090684600F009F82068002802DA009870
:102D1000404200E00098206018BD10B5012202E09A
:102D200002EB820252000B00A1F10101C9B2F7D1FE
:102D300002EB82014B000168B1FBF3F403FB1414B6
:102D400002EB8202A24201D8194401600168091B0A
:102D5000016010BD2DE9FF5FF74E3478FFF7ACFC42
:102D600030780225DFF8D493F54F0DF104084FF0C9
:102D7000FF3A4FF0010B092879D2DFE800F0054750
:102D800089DDFDFCFBFAF900707830B1FFF77EFCBD
:102D9000ECA202210020FEF79AFEDFF8C093B9F8FA
:102DA000000048B97868010402D5A9F800A003E042
:102DB000C00301D5A9F800B0B9F8000048B1FEF78A
:102DC0001BFDB9F900100844FEF79CFEB8B10520C0
:102DD000B071FEF711FD01230A2201A9CDF800A070
:102DE000FFF772FD022308F1070219461220FEF7D1
:102DF0002AFE7868410304D50124B571B8E20420A5
:102E0000E6E78004FAD50124B571B1E2707830B1FB
:102E1000FFF73CFCD2A202210020FEF758FEDFF8AB
:102E20003C83B8F8000048B97868010402D5A8F8D6
:102E300000A003E0C00301D5A8F800B0B8F8000076
:102E400060B1FFF793F9B8F900100844002801DDDC
:102E5000012000E00020FFF74DFAB571FFF786F979
:102E600030B1C1A202210F20FEF731FE05E069E278
:102E7000BFA202210F20FEF72AFE7868410302D587
:102E80000224B57174E28004B8D50224B5716FE2F2
:102E90007078D0B1FFF7D8FBB7A201210020FEF770
:102EA00016FEB9A202210020FEF711FEB5A20321F1
:102EB0001220FEF70CFE0120FDF7E4FE4CF2503329
:102EC000032200219D4800F05DFE707930B1317918
:102ED0009A48FFF74BFE28B10320B07199F80930EA
:102EE0001BB901E00220F8E7012399F908000090DE
:102EF0000A2201A9D9F80400FFF7E6FC072308F12C
:102F0000020203210B20FEF79EFD786841030ED5D7
:102F10008A48FFF73BFC044621460120FDF788FE66
:102F200021460120FDF704FB0324B57120E2800453
:102F3000A8D50324B5711BE2707800B3FFF784FBBA
:102F400097A201210020FEF7C2FD8FA202210020DE
:102F5000FEF7BDFD8BA203211220FEF7B8FD022073
:102F6000FDF790FE03224CF250330021734804E039
:102F700096E145E12CE18DE03CE000F003FE707944
:102F800030B131796D48FFF7F1FD28B10320B07100
:102F900099F809301BB901E00220F8E7012399F9FB
:102FA000080000900A2201A9D9F80400FFF78CFC60
:102FB000072308F1020203210B20FEF744FD786885
:102FC000410312D55D48FFF7E1FB0446214602208C
:102FD000FDF72EFEFDF7BEFC21460220FDF7A8FA04
:102FE000FDF79AFA0424B571C2E180049ED5042449
:102FF000B571BDE17078D8B1FFF726FB6CA2012155
:103000000020FEF764FD60A202210020FEF75FFDB4
:103010006AA203211220FEF75AFD4FF47A60FDF7F1
:1030200051FF4CF2503303220021444800F0AAFD26
:10303000707930B131794148FFF798FD28B103200C
:10304000B07199F809301BB901E00220F8E70123BB
:1030500099F9080000900A2201A9D9F80400FFF7A5
:1030600033FC072308F1020203210B20FEF7EBFCDF
:103070007868410309D53148FFF788FB01460120F4
:10308000FDF766FA0524B57172E18004ACD505241C
:10309000B5716DE17078D8B1FFF7D6FA48A2012179
:1030A0000020FEF714FD38A202210020FEF70FFDDC
:1030B00042A203211220FEF70AFD44F62060FDF72C
:1030C00001FF4CF25033032200211C4800F05AFD4E
:1030D000707930B131791948FFF748FD28B10320E4
:1030E000B07199F809301BB901E00220F8E701231B
:1030F00099F9080000900A2201A9D9F80400FFF705
:10310000E3FB072308F1020203210B20FEF79BFCDF
:10311000786841030BD50948FFF738FB01460220C8
:10312000FDF716FAFDF7FEF90624B57120E18004DB
:10313000AAD50624B5711BE188030020C410002025
:103140000C080020CAEEEDF2F0E0F1F22028302D5C
:103150003230293A20202020000000005C030020AB
:10316000C7E2F3EA3A20000020E2EAEB00000000A8
:10317000E2FBEAEB00000000CAE0EBE8E1F0EEE27F
:10318000EAE02034ECC00000C8E7ECE5F0E5EDED46
:10319000EEE520E7EDE0F7E5EDE8E53A00000000B8
:1031A000CAE0EBE8E1F0EEE2EAE0203230ECC00009
:1031B000CAE0EBE8E1F0EEE2EAE02034C200000011
:1031C000CAE0EBE8E1F0EEE2EAE0203230C20000D3
:1031D000707830B1FFF74AFA6BA201210020FEF7A8
:1031E00076FC7868410306D500210120FEF7D8F966
:1031F0000724B571BCE0800498D50724B571B7E009
:103200007078D8B1FFF732FA63A201210020FEF7EF
:103210005EFCAFF28C0202210020FEF758FC5DA29A
:1032200003211220FEF753FC44F62060FDF74AFE0E
:103230005D4B032200215D4800F0A4FC707930B1A1
:1032400031795A48FFF792FC28B10320B07199F800
:1032500009301BB901E00220F8E7012399F90800C1
:1032600000900A2201A9D9F80400FFF72DFB0723DB
:1032700008F1020203210B20FEF7E5FB7868410309
:1032800009D54A48FFF782FA01460220FEF788F97D
:103290000824B5716CE080046AD50824B57167E034
:1032A0007078D8B1FFF7E2F941A201210020FEF7C2
:1032B0000EFCAFF22C1202210020FEF708FC35A212
:1032C00003211220FEF703FC44F62060FDF7FAFD0F
:1032D000354B03220021354800F054FC707930B1A1
:1032E00031793248FFF742FC28B10320B07199F8D8
:1032F00009301BB901E00220F8E7012399F9080021
:1033000000900A2201A9D9F80400FFF7DDFA07238B
:1033100008F1020203210B20FEF795FB78684103B8
:103320000BD52248FFF732FA01460320FEF738F9A1
:10333000FEF7A0F80924B5711AE0800418D5092415
:10334000B57115E0707898B1FEF752FA00211DA210
:103350000846FEF7BCFB20A201210020FEF7B7FBC8
:1033600021A203210020FEF7B2FB0020FDF7AAFDF9
:103370003078844204D0347086F801B0BDE8FF9FF5
:1033800000207070FAE70000CAE0EBE8E1F0EEE23E
:10339000EAE02030ECC00000CAE0EBE8E1F0EEE249
:1033A000EAE0203430ECC00040420F00C41000209E
:1033B000CAE0EBE8E1F0EEE2EAE020343030ECC0C5
:1033C00000000000CAE0EBE8E1F0EEE2EAE020EF06
:1033D000F0E8E1EEF0E000002020202020E7E0E22D
:1033E000E5F0F8E5EDE02E00CFE5F0E5E7E0EFF3FE
:1033F000F1F2E8F2E520EFF0E8E1EEF00000000085
:103400002DE9F04F85B0F94F3C78FFF755F9387842
:103410000026DFF8DCA34FF0030B0DF104084FF09A
:103420000109022520B1012875D0022874D179E262
:103430007878002818D0FEF7DBF90021EDA20846C5
:10344000FEF745FBF1A201210020FEF740FBF5A2AB
:1034500002210020FEF73BFBF8A203210020FEF72B
:1034600036FB0020FDF730FCDAF8040000030BD532
:10347000FDF7C8FA401C022800DD0120FDF758FCCA
:10348000C0B30720B871FE70FDF7BCFA4FF0FF31F2
:10349000009101230A2201A9FFF716FA012303AACA
:1034A00000211320FEF7CFFAEA48008878B1FDF733
:1034B000C1FAE849B1F9001001EBC10202EB0111B8
:1034C00000EB8100FDF74AFCB8B10520B871F8782F
:1034D000A8B1DAF80400410321D5DF48FFF756F917
:1034E000642148430490FDF739FCB0B10720B8715E
:1034F000FE7022E0FFE70620C4E70420E6E77879C3
:10350000D8B1F02301223979D34800F03BFB87F88A
:103510000390BD7111E078E076E00620E7E78004D3
:1035200002D5FE70BD7108E0787930B13979CA48AA
:10353000FFF71CFB38B10320B871F87828B1C648F2
:10354000437AABB913E00220F6E7FDF773FA049073
:1035500004230A2201A9CDF800B0FFF7B5F905232D
:1035600008F1020201210D20FEF76DFA18E0012397
:1035700090F90810009140680A2201A9FFF7A4F908
:10358000787A38B1042308F1050201210E20FEF7F4
:103590005AFA05E00423B14A01210E20FEF753FA3E
:1035A000FCF7FCFE0490012104A8FFF7B6FB0423FE
:1035B0000A2201A9CDF800B00498FFF785F9042389
:1035C00008F1030202210E20FEF73DFAFCF7ECFEA3
:1035D0000490012104A8FFF7A0FB04230A2201A9FB
:1035E000CDF800B00498FFF76FF9042308F1030247
:1035F00002210720FEF727FAFEF7EDFF9AF80400F4
:10360000000701D50124BD7147E27878C0B1FEF70B
:10361000EFF8002192A20846FEF759FA92A2012182
:103620000020FEF754FA96A202210020FEF74FFA7E
:1036300082A203210020FEF74AFA0120FDF744FB95
:103640009AF80000000719D5DAF80400010405D53E
:103650000020FDF70BFC0620B8710EE0C10305D574
:103660000120FDF703FC0620B87106E0800304D5B5
:103670000220FDF7FBFB0620B8717E71FDF7F4F91F
:1036800020B1012808D0022811D10BE082A200212C
:103690000A20FEF71CFA0AE082A200210A20FEF7A7
:1036A00016FA04E082A200210A20FEF710FA694807
:1036B000008828B3FDF7B8F9804A904212DB6549CB
:1036C000B1F9001001EB4103C3EBC11100EBC100E4
:1036D000904210DD4FF47A7190FBF1F201FB120180
:1036E000401A08E05B49B1F9001001EBC10202EB9E
:1036F000011100EB8100FDF709FB50B30520B87103
:10370000FDF792F9049004230A2201A9CDF800B034
:10371000FFF7DAF8052308F1020201210E20FEF777
:1037200092F9DAF80400000302D5FDF71BFABD7127
:10373000F87880B1DAF8040041031BD54648FFF75A
:1037400025F80490FDF76CFB90B10720B871FE706E
:103750001EE00420D3E77879D0B1584B00225B1EDD
:1037600039793D4800F00EFA87F80390BD710FE0FB
:103770000620EBE7800402D5FE70BD7108E0787981
:1037800030B139793448FFF7F1F9D0B10320B8717D
:10379000FDF73EF904904FF0FF3B01230A2201A9F7
:1037A000CDF800B0FFF790F8052308F104020221DC
:1037B0000920FEF748F9F87828B12748437AA3B9D9
:1037C0007EE00220E3E7FDF749F9049001230A2295
:1037D00001A9CDF800B0FFF777F8052308F104023E
:1037E00002210F20FEF72FF982E06AE08803002013
:1037F0000C080020CFEEF1F22E20F2EEEA2E20CFC0
:10380000F0EEF4E8EBFC202000000000D3F1F22EF3
:1038100020F2EEEA3A202020202020202020ECC0B8
:1038200000000000C2FBF5EEE43A202020202042F8
:10383000202020202020ECC000000000C0ECEFE59C
:10384000F0ECE5F2F03A2020202020202020ECC0EF
:10385000000000005C030020C4100020563C00085B
:10386000D1E8E3EDE0EB3A00CFE5F0E8EEE43A2012
:103870002020202020202020202020F100000000F7
:10388000D6E8EAEBEEE23A202020202020202F206C
:10389000202020200000000020202020ECE5E0ED8A
:1038A000E4F00000202020202020EFE8EBE00000E2
:1038B00020EEE1F02E20EFE8EBE00000A086010012
:1038C0000123CDF800B040680A2201A9FEF7FCFFF1
:1038D000787A38B1052308F1040202210F20FEF79F
:1038E000B2F805E00523734A02210F20FEF7ABF87A
:1038F000FEF771FEDAF80400C10502D50024BD719F
:10390000CBE09AF800100907FAD5810603D5022406
:10391000BE70BD71C1E0400603D5022487F8029055
:10392000BD71BAE0787868B1FDF762FF002162A24C
:103930000846FEF7CCF8B878B0B364A202210020A4
:10394000FEF7C5F86748008898B1B87868B3FDF706
:1039500079F86449B1F9001001EBC10202EB0111E1
:1039600000EB8100B97851B3FDF70EFA50B3052092
:10397000B871F87840B3DAF80400410335D55A48F5
:10398000FEF704FF642148430490B97841B3FDF782
:10399000FBF940B30720B871FE70DAF8040020F498
:1039A0008020CAF8040032E000E005E04FA20221C6
:1039B0000020FEF78CF8C5E7FDF74AF8C9E7FDF7E8
:1039C00009FAD3E70420D3E7787900B3F023012282
:1039D0003979454800F0D6F887F80390BD7116E0B4
:1039E000FDF7F8F9D5E70620D5E7810406D5BD71C6
:1039F000FE7020F40050CAF8040008E0787930B175
:103A000039793948FFF7B2F838B10320B871F8783E
:103A100028B13548437AE3B91AE00220F6E7B878CE
:103A200090B1FDF70FF8049004230A2201A9CDF804
:103A300000B00498FEF748FF052308F102020221B6
:103A40000D20FEF700F81CE0FDF702F80490EBE70C
:103A5000012390F90810009140680A2201A9FEF79D
:103A600033FF787A38B1042308F1050202210E20D1
:103A7000FDF7E9FF05E004230E4A02210E20FDF7C1
:103A8000E2FFDAF80400C10502D50024BD7104E0AC
:103A90001C49084201D00124BD713878844206D007
:103AA0003C7087F80190FE7005B0BDE8F08F7E7025
:103AB000FAE70000563C0008C0ECEFEBE8F2F3E454
:103AC000E020F1E8E3EDE0EBE03A0000CCE0EAF1E1
:103AD000E8ECF3EC3A202020202020202020ECC02D
:103AE000000000005C030020C4100020CCE8EDE8DA
:103AF000ECF3EC3A20202020202020202020ECC0D5
:103B000000000000082004000122064B824000292A
:103B100003D0186810431860704718689043186005
:103B20007047000000800A40044A116821F00F012C
:103B300000F00F00084310607047000000800A404A
:103B40000649012804D0486820F00F0048607047FB
:103B5000486840F00F0048607047000000800A404D
:103B60000449002803D08868C00808617047002015
:103B700008617047000008400149886070470000F4
:103B80000000084070B50E46044611461D4620460A
:103B9000FFF7A9F8256031462046BDE87040FEF7E2
:103BA000E5BF10B5034600201C688C4202DA19609C
:103BB000012010BD9442FCDD1A60022010BD10B53A
:103BC000034600201C688C4202D21960012010BDFF
:103BD0009442FCD91A60022010BD70B506460D460D
:103BE0000020FFF7ADFF01210520FFF78DFF002129
:103BF0000420FFF789FFFFF75FF80446FFF75CF842
:103C00002007F8D40120FFF79BFF00210520FFF7D4
:103C10007BFF31460420FFF777FF280900F005F805
:103C20002846BDE87040AFF3008010B5FFF77CFF79
:103C30000520FDF755FA01210620FFF765FF0A2050
:103C4000FDF74EFA00210620FFF75EFFBDE81040A9
:103C50000520FDF745BA202020202020202020200C
:103C6000000000000000D007160000000000E8037C
:103C7000140000000000D007140000000000E8035A
:103C8000F40100000000E8032800000028005903A8
:103C9000280000000000D007280000002800D007FE
:103CA000280000002800D0072800000000000000C5
:103CB000E03C0008000000201C030000FC0000089D
:103CC000FC3F00081C03002094000000FC000008DA
:103CD00090400008B0030020001400001801000804
:103CE00008B5009002E00098401E0090009800285F
:103CF000F9D108BD9F4A9E4B1361136803F0380346
:103D00005B1C012914D0002119431160506041F45B
:103D1000E0731360D368D368D368D36801F03801C7
:103D20001160002111618007C00EC340D8B27047F6
:103D30004FF40071E8E78F4A8D4B1361136803F06D
:103D400038035B1C012915D0002119431160506014
:103D500041F4E0731360D368D368D368D36801F08B
:103D6000380111600021116100F00200C000C34061
:103D700098B270474FF40071E7E77E4A7C4B1361BD
:103D8000136803F038035B1C012910D0002119438C
:103D90001160506041F4E0701060D068D068D06865
:103DA000D06801F0380111600021116170474FF4B3
:103DB0000071ECE72DE9F04780466E4E6C483061AB
:103DC000306800F03800401C01292BD00024044347
:103DD00034600025002749F6404908EB0500706073
:103DE000B76044F4886434600520FFF779FF44F439
:103DF000005434604846FFF773FF24F48064346055
:103E00000520FFF76DFF24F4015434600120FFF713
:103E100067FF2D1D102DE0D304F0380030603761AE
:103E2000BDE8F0874FF40074D1E72DE9F041514E21
:103E30004F493161316801F03801491C022829D00D
:103E400000240C4334600025002749F64048756083
:103E5000B76044F4446434600520FFF741FF44F444
:103E6000005434604046FFF73BFF24F48064346024
:103E70006420FFF735FF24F4215434600120FFF75C
:103E80002FFF2D1D102DE2D304F038003060376174
:103E9000BDE8F0814FF40074D3E770B5354C344B76
:103EA0002361012930D00021236803F038030B433C
:103EB00043F0010121606060A26041F482552560F9
:103EC0000520FFF70DFF45F4005525600A20FFF798
:103ED00007FF45F0800525602820FFF701FF25F04A
:103EE0008000206020F4805525600520FFF7F8FE53
:103EF00025F4015525600120FFF7F2FE05F038009A
:103F000020600020206170BD4FF40071CCE72DE9E6
:103F1000F04106460F46B007C00E02FA00F5FF2436
:103F2000844039463046FFF728FFA043254040EA49
:103F3000050239463046BDE8F041AEE72DE9F041D3
:103F400006460F4606F00200C00002FA00F54FF6E2
:103F5000FF74844039463046FFF70FFFA0432540E9
:103F600040EA050239463046BDE8F04195E70000D9
:103F70005155AA8A0080014008B5009002E00098DF
:103F8000401E009000980028F9D108BD70B51A4C69
:103F9000184B2361236803F038035B1C012925D0EB
:103FA0000021194321609200104460600026A66041
:103FB00041F4886525600520FFF7DEFF45F40055D4
:103FC000256049F64040FFF7D7FF25F4806525605E
:103FD0000520FFF7D1FF25F4015525600120FFF7EB
:103FE000CBFF05F038002060266170BD4FF40071F2
:103FF000D7E700005155AA8A0080014000127A00DC
:104000000000000000800A400700000000000B4094
:104010000A00000000000B400900000000000B40F7
:104020000800000000000B40070000000000000036
:104030000000000000000000000000000000000080
:104040000000000000000000000000000000000070
:104050000000000000000000000000000000000060
:104060000000000000000000000000000000000050
:104070000000000000000000000000000000000040
:104080000000000000000000000000000000000030
:04000005080000C12E
:00000001FF
