:020000040800F2
:10000000B81700205D0100086501000867010008BD
:10001000690100086B0100086D0100080000000084
:100020000000000000000000000000006F01000858
:10003000710100080000000073010008852300081A
:100040007701000877010008770100080000000030
:1000500000000000C91000087701000877010008BF
:100060007701000800000000770100087701000810
:100070007701000800000000770100087701000800
:10008000770100087701000800000000050700085C
:1000900077010008000000000000000000000000E0
:1000A00000000000000000000000000077010008D0
:1000B0007701000877010008770100087701000840
:1000C00000F002F800F03AF80AA090E8000C824430
:1000D0008344AAF10107DA4501D100F02FF8AFF20D
:1000E000090EBAE80F0013F0010F18BFFB1A43F016
:1000F00001031847243E0000543E0000103A24BF7C
:1001000078C878C1FAD8520724BF30C830C144BF7C
:1001100004680C60704700000023002400250026BE
:10012000103A28BF78C1FBD8520728BF30C148BF5A
:100130000B6070471FB51FBD10B510BD00F031F842
:100140001146FFF7F7FF02F075FC00F04FF803B41B
:10015000FFF7F2FF03BC00F053F8000009488047A6
:1001600009480047FEE7FEE7FEE7FEE7FEE7FEE799
:10017000FEE7FEE7FEE7FEE704480549054A064BB1
:100180007047000015240008C1000008B8110020C5
:10019000B8170020B8130020B8130020704770472C
:1001A0007047754600F028F8AE460500694653468C
:1001B00020F00700854618B020B5FFF7DDFFBDE849
:1001C00020404FF000064FF000074FF000084FF0BE
:1001D000000B21F00701AC46ACE8C009ACE8C0094F
:1001E000ACE8C009ACE8C0098D4670470446AFF3DF
:1001F00000802046FFF7ABFF0048704758110020F1
:1002000001491820ABBEFEE726000200704740F20D
:100210009B0CC2F2000C604740F2AD2CC2F2000C05
:10022000604740F2BB1CC2F2000C6047054A1168EF
:10023000002802D041F0010001E021F0010010602F
:1002400070470000008008400349096A014201D05C
:1002500001207047002070470080084001488069F5
:10026000704700000080084030B513490A68134BFE
:100270001A40D0E900342344D0E9024504EB0514C8
:10028000234444692344C4692344446A234490F8C2
:10029000284003EB446313444A6822F40032048C80
:1002A00002EB44420B604A60028B0A61428B8A6017
:1002B0000069886230BD0000008008400300FFF143
:1002C000034A116821F4F87101EB001010607047C7
:1002D000008008400248016841F002010160704757
:1002E00000800840054A5168002802D041F0010012
:1002F00001E021F0010050607047000000800840DC
:100300000148C069704700000080084030B51149BD
:100310004A68114B1A40D0E900342344D0E9024521
:1003200004EB0514234444692344C4692344048C26
:1003300003EB8443446A234490F8284003EB44636E
:100340001A444A60028B4A61428BCA600069C862E3
:1003500030BD0000008008400300FBF1034A5168F3
:1003600021F4F87101EB00105060704700800840E4
:100370000248416841F00201416070470080084036
:1003800010B5FFF7BDFFC0F30B0010BD10B5042082
:10039000FFF7E4FFBDE81040FFF7EABF014800693E
:1003A00070470000600300200348C068B0F5FA7F82
:1003B00000D200207047000060030020D0E9021244
:1003C00011440379026902EB03721144426911443A
:1003D0000268008B01EB405010440349034A136844
:1003E0008B431844106070470000FFF10080084004
:1003F000F0B595B00EA800F0BFF84FF400301090A3
:1004000040001190400012900EA8FFF7D7FF03A8FC
:1004100000F06AF90420039040020A904FF4104063
:100420000C9007200D9003A8FFF71EFF00240A94EC
:1004300003A8FFF76BFF0120FFF7F8FE0120FFF78D
:1004400051FF684601F0D8FC1C20ADF80000694659
:100450000E4801F0F3FB0E480460446044F6206649
:10046000866043F23037C7607510056100F00BFA03
:1004700007481C30046044608660C760056100F076
:1004800002FA0448447015B0F0BD000000000C40B2
:10049000380800206003002006480749026A0A6005
:1004A000426A4A60826A8A60C06AC860084600F090
:1004B000EAB90000FC100020540800200548064955
:1004C00002680A6242684A6282688A62C068C862D8
:1004D0007047000054080020FC100020064807491F
:1004E00002690A6042694A6082698A60C069C860BC
:1004F000084600F0C8B90000FC10002038080020B1
:100500000548064902680A6142684A6182688A6150
:10051000C068C8617047000038080020FC10002047
:10052000014800F0B0B9000054080020014800F074
:10053000AAB9000038080020012805D0044801604D
:10054000044949684160704701480838F7E70000EE
:100550005C08002060030020012805D004480160E9
:10056000044989684160704701480838F7E700008E
:10057000400800206003002000210160416081608C
:10058000C1600161416181617047000070B5002563
:100590000220FFF795FE0024FFF79CFE0420FFF7E2
:1005A00053FE0028FAD0FFF759FEC0F30B000544B4
:1005B000641CE4B2042CEFD3054C65602946054861
:1005C00001F0D2F8002800DA0020206170BD0000A0
:1005D000600300205408002070B52E4C00252570C3
:1005E0002D480078002846D100F050FA50B120691B
:1005F00040F66E71884203D8207840F001002070E8
:1006000065700DE06078182801D2401C00E00020E1
:10061000C0B260700C2803D2207840F00100207036
:1006200000F034FA00B300F02BFA80B100F048FA81
:1006300021696438884205DC00F03CFA21696430A5
:10064000884218DA207840F00200207013E000F0B1
:1006500029FA2169081A00D5404264280BDD207868
:1006600040F00200207006E02069642803D9207859
:1006700040F002002070207800F00201002001F01C
:10068000C1FA2078BDE8704000F00101012001F0BE
:10069000B9BA0000600300208403002070B5002573
:1006A0000320FFF70DFE0024FFF714FE0420FFF7E0
:1006B000CBFD0028FAD0FFF7D1FDC0F30B000544B5
:1006C000641CE4B2042CEFD3054CA5602946054810
:1006D00001F04AF8002800DA0020E06070BD000058
:1006E0006003002038080020002101604160816023
:1006F000C1600161416101834183C1610162416265
:100700008162704772B61D4801F08EFA1C4801F0F4
:100710008BFA1C4801F088FA1B4801F085FA1B4847
:1007200001F082FA1A4801F07FFA002000F006F981
:1007300002F012F91748007890B100F081FAFFF743
:10074000BDFEFFF7DDFE00F04DFF01F00DFA01F0F8
:1007500009FE00F003FE104800F012FD044606E01A
:1007600000F08CFA00F0C0FDF5E701F017F8204624
:1007700000F0E0FC0028F8D1FEE7000000800A400D
:1007800000000B4000800B4000000C4000800C403B
:1007900000800E408403002048E80100054A1168EB
:1007A000002802D041F0080001E021F008001060AC
:1007B000704700000080094010B5064A116821F01A
:1007C000F601D0E9003480682344084418441060DE
:1007D00010BD00000080094000210160416081607F
:1007E00070470000054A1168002802D041F001005E
:1007F00001E021F001001060704700000080094016
:1008000003490968014201D0012070470020704768
:100810000080094000B5014600F00CF8084201D004
:10082000012000BD002000BD014880687047000025
:10083000008009400148406870470000008009407E
:10084000054A1168002802D041F4005001E021F46B
:1008500000501060704700000080094010B5064A43
:10086000116821F47061D0E90034806823440844A1
:100870001844106010BD0000008009400021016094
:1008800041608160704700B502465168D068411AE6
:1008900013689068C31A1069584300F079FC5061DE
:1008A00013691168594353684343C81A906100BDE6
:1008B0002DE9F04100245B1E0FFA83F8531A1DB294
:1008C0004346671E002D03DA6D422DB2BC4601E09F
:1008D0004FF0010C002B02DA5B421BB200E0012753
:1008E0006D002DB25B001EB20180AE4213DDA5EBA0
:1008F000660212B20BE0002A03DB614409B2921BCC
:1009000012B2E3191CB22A4412B220F81410444562
:10091000F1D1BDE8F081A6EB65031BB20BE0002B23
:1009200003DB3C4424B25B1B1BB2614409B2334479
:100930001BB220F814109142F1D1EAE7054A116880
:10094000002802D041F0080001E021F0080010600A
:100950007047000000000940034A116821F00201BD
:100960000844106070470000000009400149886099
:1009700070470000000009400648074902680A6005
:1009800042684A6082688A60C068C8600846FFF7AB
:100990007ABF0000FC100020D00800200148FFF7BB
:1009A00072BF0000D00800202DE9F0412C4D05F168
:1009B0002800A96900F0CAFE044605F12800E9698B
:1009C00000F0C4FE40F6AD71002C01DA002402E014
:1009D0008C4200DD0C46002801DA002002E088424B
:1009E00000DD0846A97B4FF4FA76770031B1012982
:1009F00013D0022919D003292ED11EE00021184B53
:100A00004433B14201D2224600E0024623F81120CD
:100A1000491C89B2B942F4D31EE002B210483B46E9
:100A200021B24430FFF744FF16E001B20C483B46C8
:100A300022B24430FFF73CFF0EE002B2084821B278
:100A4000334617460C464430FFF732FF3346224602
:100A500039460448FFF72CFF00206874BDE8F08198
:100A6000A8080020D40C00200148007B704700003B
:100A7000A80800200148406A70470000A80800202C
:100A80000148407B70470000A80800200148C07B57
:100A900070470000A8080020014840697047000026
:100AA000A80800200248017B491E50F82100704729
:100AB000A80800200148C06970470000A80800206D
:100AC0000148806970470000A80800200148006ABA
:100AD00070470000A80800200148807B7047000094
:100AE000A808002010B586B00E4C204601F085FD08
:100AF000684601F06CFD40F23F11ADF802100A218A
:100B0000ADF804106946204601F046FD002120465C
:100B100001F0B8FC01220221204601F066FD06B07A
:100B200010BD0000000007403EB5684601F064F9C2
:100B30000125ADF8005069461F4801F07FF80220FA
:100B4000FFF70AFF0020FFF711FFFFF7CBFF00F0D0
:100B5000FDF901210A2000F039FA0020174C4FF46A
:100B60007A6144F82010401CC0B20228F9D32573E2
:100B700000206073A07365744FF47A726261A161A2
:100B800044F62062E2610A212162656220740B4909
:100B90002831086048608A6040F6CC40C860501038
:100BA00008610846FFF76FFE606900F083F80020D7
:100BB00000F0B0F93EBD000000800C40A808002005
:100BC00001490120C8717047880300200148006A6C
:100BD00000F040B9A80800200749886A20F4806026
:100BE00088620648064A1368036053684360926847
:100BF000826008158862704700800240A0040020CF
:100C0000BC10002000200C490C4A51F8203042F85A
:100C10002030401CC0B20228F7D3087A1073487AFB
:100C20009073C86850610B6993614B69D36189699E
:100C3000116200F03FB80000D4100020A808002086
:100C40000548064902680A6042684A6082688A600C
:100C5000C068C86070470000D0080020FC10002069
:100C6000012806D004480160034930398968416091
:100C7000704701480838F6E7D808002000200B49E3
:100C80000B4A51F8203042F82030401CC0B20228F4
:100C9000F7D3087B1072887B50724869D0608869EE
:100CA0001061C8695061086A90617047A808002007
:100CB000D4100020642148434FF47A71B0FBF1F165
:100CC0000448491E816001688268914201D3002175
:100CD000016070470000074070B50B4C617B81429A
:100CE00010D06073002520B900F00EF90120606279
:100CF0002574E573002000F00DF9BDE87040002078
:100D0000FFF71CBE70BD0000A808002010B51C4CE9
:100D1000E17B814212D0E073617B81B118B3012085
:100D2000FFF70CFE607C08B1FFF73EFEFFF754FFB3
:100D300000F0E2F813494FF48060486110BD50B1F3
:100D4000207B401E54F8200000F0E4F8BDE810407D
:100D50000120FFF7F3BD002000F0DCF8BDE81040F3
:100D60000020FFF7EBBD00F0CFF8002000F0D2F834
:100D70000020FFF7E3FD012060620020207410BD19
:100D8000A80800200080024031B5064A6421684668
:100D900003F03BF80446044900984861FFF78AFFD6
:100DA000204638BD20A10700A808002031B5022246
:100DB0000121684603F037F8044600980649C0B29E
:100DC0000873CA7B32B14A7B22B9401E51F8200019
:100DD00000F0A0F8204638BDA808002031B545F63F
:100DE000C0526421684603F010F804460649009892
:100DF0000A7B521E41F82200CA7B1AB1497B09B90D
:100E000000F088F8204638BDA808002031B545F626
:100E1000C0526421684602F0F8FF04460348009976
:100E2000C161807B00F042F8204638BDA808002050
:100E300031B545F6C0526421684602F0E6FF04462B
:100E4000034800998161807B00F030F8204638BD6E
:100E5000A808002031B5124A0121684602F0E3FFDC
:100E60000546104C607B012803D1E07B08B100F0FF
:100E70004BF8009901B90121216201206062002034
:100E80002074607B012809D1E07B38B1FFF7A4FE14
:100E900000F032F804494FF480604861284638BDBC
:100EA0009F860100A80800200080024070B5104D08
:100EB000A97B814201D0012400E00024A873687B53
:100EC000012812D1E87B80B100F01EF8FFF76CFD1D
:100ED0000CB1FFF781FE287C002805D100F00CF84A
:100EE00004494FF48060486170BD0120687470BD92
:100EF000A808002000800240024800210160012172
:100F000001F040BB000007400021014801F03ABB5E
:100F10000000074010B5002808D001460A4800F03C
:100F200015FC0446002C03DA002406E0002404E04B
:100F300040F6AD70844200DD04462046FFF716FD02
:100F400001482838846010BDD008002000B58FB05B
:100F50001748019017480290C00503904FF0404099
:100F600004904FF088500590012106914FF47A705B
:100F70000790002008908A0409924A050A9201AA63
:100F80000B920C900D908DF838108DF839008DF87B
:100F90003A000BA90A2001F00FFE07480749026832
:100FA0000A6042684A60806888600FB000BD000037
:100FB000EC08002008000940A0040020BC1000201C
:100FC00001490120C864704700800240012282402C
:100FD0000348012901D0C262704782627047000055
:100FE0000080024010B583680268B3F1406F26D0DC
:100FF0008469641E9B0E9C4022440A604269042A54
:101000001FD0C268B2F1404F1FD083695B1E920FA0
:10101000934042681A444A60D0E903231A43446A61
:10102000836823431A43036A1A43C3691A438369D3
:1010300040695B1E42EA031202438A6010BD0A60E7
:10104000DCE742680C324A60E6E742684A60E3E760
:1010500006480021416081604161491EC1614162D1
:10106000C1624163C1630121C164704700800240D5
:1010700010B501228240134CD2B2092920D2DFE8F8
:1010800001F01F05090D101316191C00206800F04F
:10109000010010BDE06C00F0010010BDA06A10401E
:1010A00010BD206A104010BD2069104010BDA0691D
:1010B000104010BD206B104010BDA06B104010BD43
:1010C000002010BD0080024010B5154A906A40050E
:1010D000002819DB134814490B6803604B68436010
:1010E0008968816010159062104CD4E9081088421C
:1010F00002D2401C606207E000210D4801F042FA74
:1011000001202074FFF75CFD02210020FFF7B0FFF3
:10111000012803D1BDE81040FFF752BF10BD000009
:1011200000800240A0040020BC100020A80800207D
:101130000000074002494968081AC00F70470000C4
:10114000001000E000B500F01BF802461046FFF763
:10115000F1FF0028FAD100BD07480168C9070AD18C
:10116000016841F08071016004480021416001681C
:1011700041F0010101607047FCED00E0001000E06B
:101180000249496801EB401070470000001000E080
:10119000400090FBF1F0002801DB012101E04FF05D
:1011A000FF31084400EBD0704010704701484068A0
:1011B00070470000980300202DE9F05F4FF00A0807
:1011C0002B4F4FF0000AC7F804A000254FF000692C
:1011D000032D02D209EB850B04E0786828B138783A
:1011E00009EB800B234E00240AE000242BE00121B0
:1011F0005846FFF70CF801C60BF1100B641CA4B2A3
:101200004445F4D34FF6FF701A4C002604F1200B2E
:1012100014F8011B01F013FA5C4503D0761CB6B23A
:10122000282EF5D313490A8C824207D1C869796800
:10123000884201D978603D70012400E000246D1CD3
:10124000ADB2042DC4D33CB13878022802D0401C82
:10125000387005E00020FBE787F800A001207860E7
:101260003A7801214846FEF7D7FF2046BDE8F09FB7
:1012700098030020D41000202DE9F04107464FF0DC
:101280001708174E174D002407E001213046FEF7DE
:10129000BEFF01C51036641CA4B24445F5D34FF619
:1012A000FF70104C002504F1540614F8011B01F0E6
:1012B000C6F9B44203D06D1CADB25C2DF5D309491B
:1012C000B1F85410814201D1012400E0002427B17B
:1012D00001210322C806FEF79FFF2046BDE8F081EA
:1012E0000C000008FC1000202DE9F047DFF86480B6
:1012F000DFF86490D8F80400401CC9F81C002827C7
:101300004FF6FF704C46002504F1200607E014F864
:10131000011B01F094F9B44203D06D1CADB2BD4283
:10132000F5D3A9F820000C4D98F800004FF00061AB
:1013300001EB8006002407E004CD01213046FEF7D2
:1013400070FF1036641CA4B2B4EB970FF4D3BDE861
:10135000F087000098030020D41000202DE9F04110
:101360005C274FF6FF70114C002504F1540607E08E
:1013700014F8011B01F063F9B44203D06D1CADB247
:10138000BD42F5D30949A1F854000D46084E00248A
:1013900007E004CD01213046FEF743FF1036641C00
:1013A000A4B2B4EB970FF4D3BDE8F081FC10002099
:1013B0000C0000083EB5684600F01EFD6020ADF848
:1013C000000001208DF80A0000248DF802408DF8FD
:1013D00003008DF809006946044800F02FFC04481A
:1013E000C48000F007F800F035F83EBD00000C4066
:1013F00058030020154908788006000E0870144A2A
:1014000013689B06002B02DA40F001000870106898
:10141000400603D5087840F002000870087800F014
:101420000F000F280CD2DFE800F00B0C080B080BA4
:101430000B0C0C0B0B080B080C00C888401EC88056
:101440007047C888401CC8807047000058030020BF
:1014500000000C4013494A88C88820F003004880E7
:10146000801A00B280108880042802DA10F1040F7C
:1014700004DC00EB8000800088807047032802DADB
:1014800010F1030F04DC00EB8000400088807047FF
:10149000022802DA10F1020FF9DC00EB80008880EC
:1014A000704700005803002010B50E480E49026C2A
:1014B0000A60426C4A60826C8A60C26CCA601C31ED
:1014C000026B0A60426B4A60826B8A60C06BC860C4
:1014D0000548FFF7D8F90448BDE810401C30FFF775
:1014E000D2B90000FC1000207008002010B504489C
:1014F000FFF7C9F90248BDE810401C30FFF7C3B937
:101500007008002001484068704700007403002004
:1015100001480078704700007403002070B588B05F
:101520002C4E0021304600F0D9FD04A800F020FE2A
:101530001F21ADF810100A20ADF812000024ADF8FC
:1015400014400C21ADF816102021ADF81C10022516
:10155000ADF81E5004A9304600F0F2FD01213046DE
:1015600000F0DAFD01A800F047FC0720ADF8040008
:1015700001208DF80E008DF80C508DF80D508DF86F
:101580000600154D01A9284600F058FB0821ADF8CA
:1015900004108DF8064001A9284600F04FFB0F48C3
:1015A000046044600E49816041F67855C5604FF48F
:1015B0007A710161FFF767F908481C3004604460E4
:1015C00049F640418160C56089100161FFF75BF910
:1015D00008B070BD0000044000800E40700800207C
:1015E000801A06000A490B480A6802644A68426485
:1015F0008A688264C968C16405491C310A6802634B
:101600004A6842638A688263C968C16370470000A0
:1016100070080020FC10002030B50C4B0A4D01284A
:10162000D3E9022305F11C0404D0022808D0A960E4
:10163000EA6030BD002028606A602060636030BDD1
:10164000A160E36030BD000070080020740300203A
:1016500070B5002001F0CCF805466420FFF772FD5C
:10166000022001F0C5F8154CA0606420FFF76AFD68
:10167000012001F0BDF8A168491BA160411BE16098
:101680000F4800F071F8606049F640410844490095
:10169000884202D80020207070BD0948A1681C381B
:1016A00000F062F86060074908444900884202D8A7
:1016B0000120207070BD0220207070BD74030020D6
:1016C0008C080020801A0600094800210278094889
:1016D000002A08D0084AC260017001224270C1701D
:1016E000C17101727047054AC2600170F5E70000E0
:1016F0008403002088030020152E000869350008A7
:1017000070B5114CE578207A142801D2401C00E015
:101710000020C0B220720C2801D2012000E000207D
:1017200060720026A671E07910B1E6710820A07100
:10173000E0688047A07908B100F026FDE078854296
:1017400000D0267270BD00008803002002694A4361
:101750008169521A41691046FFF71ABD01480068B5
:10176000704700002003002042694A4381690A440F
:1017700001691046FFF70CBD02494CF6CC400860E9
:1017800070470000008006400349C968014201D04B
:1017900001207047002070470080064002494AF649
:1017A000AA20086070470000008006400149486098
:1017B00070470000008006400149886070470000C3
:1017C0000080064001490020086070470080064004
:1017D000024945F2555008607047000000800640FD
:1017E0000548002101604160C1618160C160016103
:1017F00041618161704700000C0800202DE9F04133
:10180000184F0020386000243D1D012606FA04F020
:10181000C0B202F0BDFA1420FFF794FC00210020B2
:1018200055F83020136805EBC00292F804C0324628
:1018300006FA0CFC13EA0C0F01D0824000E00022F3
:101840001143401CC0B20528EAD338684001084360
:101850003860641CE4B2042CD8D3BDE8F041002009
:1018600002F096BA200300200121002002F0E9BA1C
:1018700001480078704700004C030020FEB5684620
:1018800000F0BAFA7020ADF8000001268DF80A6069
:101890008DF8026002208DF80900414D6946284606
:1018A00000F0CCF90F21ADF8001000248DF80340B2
:1018B0008DF804608DF802406946284600F0BEF9B4
:1018C000684600F099FA8DF80A608DF804608DF88A
:1018D0000240344D05EBC400017906FA01F0ADF881
:1018E000000055F83400694600F0A8F9641CE4B221
:1018F000052CEFD30021062002F03AFA0021052042
:1019000002F036FA0021042002F032FA4CF2503094
:10191000FFF718FC012002F047FA032002F0B9FAA1
:101920003220FFF70FFC032002F0B3FA3220FFF75A
:1019300009FC032002F0ADFA3220FFF703FC02207D
:1019400002F0A7FA3220FFF7FDFB2A21002002F067
:1019500078FA0821002002F074FA0121002002F038
:1019600070FA4221002002F06CFA0C21002002F0F3
:1019700068FA0021084600F013F90BA000F0D8F82F
:101980000121002000F00CF90CA000F0D1F8032197
:10199000002000F005F90DA000F0CAF8FEBD00001F
:1019A00000800A4024030020CAE0EBE8E1F0E0F206
:1019B000EEF020F2EEEAEEE2EEE900002020EFE5A4
:1019C000F2EBE820342D3230ECC00000C2E5F0F13B
:1019D000E8FF20312E3100002DE9F04194B00EA82F
:1019E00000F0F5FD1F20ADF83A004FF47A70ADF825
:1019F0003C00284F0EA9384600F0CEFD08A800F0A4
:101A0000B3FD0025ADF822504FF44060ADF82A0038
:101A10004FF00808ADF832800224ADF8204008A944
:101A2000384600F059FD03A800F093FDADF81450BE
:101A3000ADF816400126ADF81860ADF80C4003A9CA
:101A4000384600F069FDBD610021384600F01AFDFE
:101A50000121384600F096FD0F4F0821384600F06E
:101A6000AFF9684600F0C8F9ADF800808DF808407D
:101A70008DF80A608DF802608DF809406946384695
:101A800000F0DCF8054845700A2000F077F814B043
:101A9000BDE8F0810080074000800C404C0300202E
:101AA00070B505460C4604E015F8011B012002F054
:101AB000C8F92000A4F10104E4B2F5D170BD70B5FD
:101AC00014461D4600F06CF829462046BDE87040DB
:101AD000FFF7E6BF70B5144D6878411CCCB2002802
:101AE00004D0012805D000246C7070BDFEF74EFCB8
:101AF000FAE7FEF745FCC0F5805080B26988081A05
:101B00000A49002802DA002088610BE000EB80001F
:101B10004000C0F5FA60322800DA32208860886818
:101B2000400888610024DFE74C0300200080074064
:101B300010B5044603E0641C012002F082F921780C
:101B40000029F8D110BD10B5144600F029F8204640
:101B5000BDE81040FFF7ECBF024890F8500000F0DD
:101B60000DB80000FC10002002480349007881F8FD
:101B7000500070474C030020FC10002001B51422D7
:101B80000021684602F041F90099044AC9B2117077
:101B90000A3164235943518008BD00004C030020E2
:101BA000132800D90020012904D0022905D00329D7
:101BB00008D105E04030C0B204E01430C0B201E00A
:101BC0005430C0B240F08001002002F03AB9000069
:101BD0003EB50B4C0321204600F0F2F8684600F0B9
:101BE0000BF90321ADF8001001218DF80A108DF8D2
:101BF00002108DF809106946204600F01FF83EBD1E
:101C000000800B40002801D0012809D10122824028
:101C1000044811B1114600F0E1B8114600F0D0B807
:101C20007047000000800B400021C16001614160ED
:101C30000160816041618161C16170472DE9FF4FA1
:101C4000D0F804908768D0F80CA0D0F81080D0F8B5
:101C500014C082690192C269009200220123032507
:101C60004FF001160C885EE05FEAC47B56D091F815
:101C700002B029EA03090BFA02FB49EA0B0991F8C1
:101C800008E04FEA420B0EFA0BFEAF434EEA07079D
:101C9000CDF80CB091F80AB02AEA030A0BFA02FB5D
:101CA0004AEA0B0A91F803E002F1100B0EFA0BFE60
:101CB000CDF808B091F804B028EA060848EA0E0802
:101CC0000BFA02FB48EA0B0891F805E0DDF808B0D2
:101CD0002CEA060C0EFA0BFE91F806B04CEA0E0C3C
:101CE0000BFA02FB4CEA0B0C91F809E0DDF80CB0A2
:101CF0000EFA0BFEDDF804B02BEA050B4EEA0B0ED4
:101D0000CDF804E0DDF800B091F807E02BEA030B12
:101D10000EFA02FE4BEA0E0BCDF800B05B00AD00F0
:101D20007600521C6408002C9ED12449884202D1BE
:101D30004FF01F0101E04FF0000129EA0109C0F84E
:101D4000049002D14FF01F0101E04FF0000127EA9B
:101D50000107876002D14FF01F0101E04FF0000141
:101D60002AEA010AC0F80CA002D14FF01F0101E0DD
:101D70004FF0000128EA0108C0F8108002D14FF0AE
:101D80001F0101E04FF000012CEA010CC0F814C063
:101D900002D14FF01F0101E04FF00001019A22EA49
:101DA0000102826102D14FF01F0101E04FF00001FA
:101DB000009A22EA0102C261BDE8FF8F00000B40D9
:101DC0000368054A904201D11F2200E000220A4325
:101DD000934303607047000000000B400368054A0E
:101DE000904201D11F2200E0002293430B43036085
:101DF0007047000000000B404FF6FF71018000218A
:101E00008170C170017141718171C1710172417242
:101E10008172704730B589B006A8FEF72FFD4FF4E8
:101E2000807006904000079006A8FEF717FD03A8F3
:101E3000FEF7D2FC0020039004906020059003A8D8
:101E4000FEF7BAFC0120FEF7CDFC0120FEF7A6FC50
:101E50004FF480542046FEF7D3FC0128FAD168469F
:101E6000FFF7CAFF0420ADF8000069461148FFF7EC
:101E7000E5FE4CF250342046FFF782F9054608E0B3
:101E80000120FEF7C7FC012803D12046FFF778F9AF
:101E900005462846FFF74EF90028F1D1FEF7C4FCAD
:101EA0000120FEF7CDFC04484FF40021016009B089
:101EB00030BD000000800C4000E100E02DE9F05F43
:101EC000002500260027A846214CDFF888B0DBF863
:101ED00000906FEA090AFFF741FCCBF80000C2430B
:101EE000691E81450AD0DBF80430192B01D20D465A
:101EF00000E00E460021CBF804100EE0DBF80430C1
:101F00001A2B02D05B1CCBF80430DBF804300F2B0B
:101F100000D30F46192B00D18846206000EA0A0141
:101F20006160E3694B40E3614AEA070A0AEA000A92
:101F3000C4F808A002EA0902E26002EA0501216190
:101F40003240626100EA0800A061BDE8F09F000035
:101F50000C08002050030020014908607047000071
:101F6000B4024042034A516921F4706141EA002001
:101F70005061704700000240034A516921F033016B
:101F800001435161704700000000024001490860B0
:101F900070470000880040420B4AD36823F00303D7
:101FA0000343D360506820F4706040EA0120506021
:101FB0000648D0F88810002904D0012140F88C1F71
:101FC0000021016070470000000002400000404214
:101FD00008B5002000904FF4C063212000F02AF8DB
:101FE0000099491C00910099994201D20028F4D02F
:101FF000212000F01FF808B1012008BD002008BD15
:10200000014908607047000088014042034AD168D6
:1020100021F0F00141EA0010D0607047000002405A
:10202000034AD16821F440710143D1607047000038
:1020300000000240C0F34211012909D00749C96BD1
:1020400000F01F0201209040084204D00120704798
:1020500003490968F4E700207047000000800D4044
:102060000000024009498A6822F003028A600128C0
:1020700006D0022803D1886840F0030088607047CA
:10208000886840F00100886070470000000002404E
:1020900008B5002000904FF4C0632220FFF7CAFF6C
:1020A0000099491C00910099994201D20028F4D06E
:1020B0002220FFF7BFFF08B1012008BD002008BDA6
:1020C000054A002903D0D1690143D1617047D16924
:1020D0008143D161704700000000024010B50B4BF6
:1020E000DA6A0B4CA04205D142F0807020F0FF026A
:1020F0000A4308E0074CA04205D142F0007020F4EA
:102100007F4040EA0122DA6210BD00000000024078
:102110000000044000000A40002904D0416841F05A
:1021200002014160704741684FF6FD721140416005
:102130007047C068084201D00120704700207047F6
:1021400010B54A8802610A894B890C881A448B8928
:1021500003EB04231A44CB881A440260CA89898895
:102160001144416010BD806880B270478160704743
:10217000002181800722C280418101818181022268
:10218000428001807047000017498A78002A0BD0EE
:10219000164A0B2808D2DFE800F00706080A0E12DC
:1021A000161A1E222400CA607047CA6070470F4882
:1021B0000830C86070470D480C38C86070470B483D
:1021C0000838C860704709481830C8607047074829
:1021D0002830C860704705481030C8607047CA6032
:1021E0007047CA6070470000A0030020D63E000878
:1021F0000148807870470000A0030020F0B595B03A
:102200000FA800F0E4F91F20ADF83E004FF47A70FB
:10221000ADF84000274F0FA9384600F0BDF909A8D6
:1022200000F0A2F90024ADF826404FF44060ADF86C
:102230002E000820ADF83600ADF8244009A9384634
:1022400000F04AF904A800F084F9ADF81240022623
:10225000ADF814600125ADF81650ADF8104004A992
:10226000384600F059F93C610021384600F00AF97F
:102270000121384600F086F90F4F04213846FFF758
:102280009FFD01A8FFF7B8FD0420ADF804008DF80C
:102290000C608DF80E508DF806508DF80D6001A978
:1022A0003846FFF7CBFC05480470C460857015B054
:1022B000F0BD00000000084000800B40A00300209B
:1022C0002DE9F0410020214D0026E968002900D0C9
:1022D0002E70012734E0297821B101290BD0022981
:1022E0002ED126E0E96821B1A960EE606E702F70F2
:1022F00026E0012024E06878411C6970A96801EBA0
:102300008004608878B1208828B101F069FD01203F
:1023100001F05AFD02E0002001F056FD6088A8801F
:102320000220287003E02E70002001F04DFD0120F6
:1023300006E0A988491E0904090CA98004D00120DF
:102340000028C8D0BDE8F0812F70F9E7A003002075
:102350000248034990F8510088707047FC10002033
:10236000A003002002480349807881F8510070479B
:10237000A0030020FC100020014988707047000075
:10238000A003002010B5054800F0ABFCFFF7A2FB4E
:10239000FFF730F8BDE81040FFF792BF2C0800208F
:1023A00010B5184BD868184C8007002801DA204671
:1023B00000E02046D968C90700D01448D968490709
:1023C00004D55968C1F30321491C4843D968104A10
:1023D000C1F3012139B1012907D002290DD049F6F5
:1023E0004040106010BD146010BDD968C1F30311E6
:1023F000491CB0FBF1F0106010BD4FF400401060BC
:1024000010BD00000000024000127A0000093D00EB
:102410001C03002008480749C161C1680021C16050
:10242000426841608268816002690161426941617C
:10243000FFF7B6BF10000008000002400E484FF43E
:102440007A710068B0FBF1F10020B1F1807F0BD20E
:1024500021F07F424FF0E021521E4A61074BE022FB
:102460001A70886107220A6105490860486088601F
:102470001320C880704700001C03002023ED00E0FB
:102480002C08002010B5104B5A6A104CA04205D100
:1024900022F0FF00084340F0807212E00C4CA04292
:1024A00006D122F47F4040EA012040F0007208E0AB
:1024B000084CA04205D122F47F0040EA014040F0E0
:1024C00080625A6210BD0000000002400000074018
:1024D000008007400000084010B54A88CB884C892E
:1024E0001A440B8923441A448B8902EB8312CB894B
:1024F0001A440B8A1A448B88002B01D002F5005233
:102500000B8800EB83031A62488ACA8A1044898ABE
:1025100001B1001D186610BD10B5CA884B880C8922
:1025200002EB03128B889B0003EB04331A444B89A4
:1025300002EB83228B8902EB03220B8800EB8300E2
:1025400002630A8A4B8AC9891A4402EB0121016499
:1025500010BD002141808180C18001814181818144
:10256000C1810182418270470021018041808180C8
:10257000C180018141818181C18101824182818249
:10258000C1827047C268002902D042F0010101E017
:1025900022F00101C160704710B50A8802604A88C4
:1025A00042608A888260CA880B898C891A444B8968
:1025B00023441A44CB891A44C2604A8A8B8A1A443B
:1025C000CB8A098A03EB01111144016510BD00217A
:1025D000018041808180C180018141818181C181EF
:1025E000018241828182C1827047C36D002A01D07D
:1025F0000B4300E08B43C36570470021C16001605D
:1026000041608160016241628162C1620163416334
:102610008163C163016641668166C1660161416192
:102620008161C161016741678167C167016441647C
:102630008164C164016541658165C1657047484039
:1026400000214AF20102C30702D082EA500000E0F2
:102650004008491C0829F6DB704730B585B0FEF705
:1026600057FF0446FEF74EFF049003256CB102218C
:1026700004A800F09FFB04230A2201A900950498F6
:1026800000F076F9022C14D018E0012104A800F023
:1026900091FB04230A2201A90095049800F068F92F
:1026A00005230DF1060203210D20FFF708FA05B0FE
:1026B00030BD2A208DF808008DF80700052301AAF7
:1026C00003210D20FFF7FBF9F1E71FB5FEF76EFDC3
:1026D0004FF0FF31009101230A2201A900F048F9CF
:1026E000092301AA03210B20FFF7E9F91FBD000010
:1026F00010B5FFF7B9F80021BDE8104001A2084667
:10270000FFF721BAC8F1F2EEF7EDE8EA20F2EEEABF
:10271000E03A000010B5FFF7A7F80021BDE810402F
:1027200001A20846FFF70FBAC0ECEFE5F0ECE5F2C6
:10273000F03A000010B5FFF797F80021BDE810400F
:1027400001A20846FFF7FFB9D1E8F1F2E5ECEDFB95
:10275000E520EDE0F1F2F0EEE9EAE83A00000000F1
:1027600010B5214901224A7120484FF0000340680A
:10277000C40701D00B7110BD040401D50A7110BD4E
:10278000C20302D50220087110BD820302D50320C6
:10279000087110BD420502D50420087110BD020564
:1027A00002D50520087110BDC20402D506200871AB
:1027B00010BD820602D50720087110BD420602D561
:1027C0000820087110BD020602D50920087110BD4D
:1027D000820702D50A20087110BD400702D50B20E0
:1027E000087110BD4B7110BD880300200C0800203B
:1027F0002DE9F041002500F0070040F0080040F00E
:10280000100700240A4E39463046FFF7AFFC04217A
:102810003046FFF78EFC0128F9D13046FFF7A3FCC4
:102820000544641CE4B2042CEDD32846BDE8F081D5
:10283000000004400246917A506892F90820002A6C
:1028400007DD891AC9B204E000EB80004000491E90
:10285000C9B20029F8D170470248006800F00F00A3
:102860007047000000800A4070B5FEF7F1FB0E488B
:102870004FF0FF340462846101210D052846FFF703
:102880001FFC0A4A00215162094A51622846FFF79B
:1028900017FC084AC2F8FC41C2F8FC4000F0BCF941
:1028A0002020D06770BD000000800240000004407E
:1028B00000000A4084E000E010B50446FEF75CFF2B
:1028C000FEF786FF0020FEF771FF0120FEF75CFF98
:1028D0000128FAD16420B4FBF0F0FEF76DFFBDE8EB
:1028E0001040FEF76FBF000010B50120FFF7BAFBE4
:1028F000FFF7CEFB012800D0FEE703210220FFF7FF
:102900004BFB0120FFF742FBFFF762FB012800D0E1
:10291000FEE70020FFF77AFB0120FFF771FB4FF481
:102920008070FFF77DFB2020FFF726FB0020FFF7DC
:1029300019FB0120FFF710FBFFF732FD01210448CE
:10294000FFF7BEFBBDE8104001210248FFF7B8BB0E
:102950000000E02328E10F0010B50020FFF760FB26
:102960000020FFF77FFBBDE810400020FFF70EBB03
:102970002DE9F0410446069F4FF0000C0020002A8C
:102980000BD0002C02DA64424FF0010C1144491EB6
:10299000150605D522F0800207E00020BDE8F08191
:1029A000002501F80159521ED2B232B14FF02E0863
:1029B000B84204D101F801890DE00020EEE7254678
:1029C0000A2694FBF6F406FB1455303501F801593C
:1029D0000BB15B1EDBB2401CC0B2521ED2B20CB1B6
:1029E000002AE5D130240DE0B84202D101F8018976
:1029F00004E001F801490BB15B1EDBB2401CC0B220
:102A0000521ED2B20BB1002AEED14AB1BCF1000F76
:102A100006D02D2301F80139401CC0B2521ED2B29B
:102A2000202301E001F801391400A2F10102D2B221
:102A3000F8D1B3E7FFF758FFFFF716FFFEF78CFB5F
:102A4000DFF840814046FEF79BFB8146FEF716FF0C
:102A5000FEF7C2FFFEF7C4FEFFF7BAF8FEF7AAFCC6
:102A6000FDF7C6FCFEF75AFDFEF75EF8FFF7C6FB62
:102A7000FEF7C4FEFEF772FE434EC0F3C040307056
:102A800000B10120FEF7F8FB0746002567B1FDF70E
:102A900073FFFDF701FDFDF721FDFEF705FDFFF7D3
:102AA0005BF8FFF755FC02E0384880F85250307868
:102AB00040B9FEF781FB28B1FEF750FE800401D437
:102AC000FEF7A0F8FEF74AFE800401D5FFF7FDFDF2
:102AD0002F4C25606560A5600420E080A07840F060
:102AE0000100A070FFF796F9FFF7A8FC4846FEF733
:102AF00021FB0028FAD1307807430ED1FEF7B4FE4F
:102B0000002124A20846FFF71EF825A2012100207B
:102B1000FFF719F84046FEF715FB46F2A810FFF73D
:102B2000CBFEFEF7D1FD234DA87840F00100A87040
:102B30000120FFF729FB28788107FCD572B620F029
:102B40000200287062B6FEF729FE114800F0C9F8AD
:102B50002078810702D43178012906D120F00200C3
:102B60002070FDF79BFDFEF773FDFDF70FFDFDF7F0
:102B700033FDFEF743FEFFF7A1F9FEF76BFCFEF70E
:102B8000BFFDD8E740420F0084030020FC10002066
:102B900000080020CDE5EEE1F5EEE4E8ECE0000011
:102BA0002020202020EAE0EBE8E1F0EEE2EAE0215C
:102BB000000000002C0800202DE9F04107460D46DA
:102BC000134E0124BC40F4622868002804D0114947
:102BD00001EB0711FEF706FA686820B1F16801EB16
:102BE0000711FEF7FFF9687B01280AD0F4617462CF
:102BF000A87B40B13463287B012806D0F463BDE88C
:102C0000F081B461F3E77463F5E7B463F7E70000BC
:102C10000080024000040020034802498160212115
:102C200041607047000400200080024070B50346F8
:102C30000025092927D829B9586818B993F9080037
:102C4000002845DB93F90840987A844219DA5E68D7
:102C500006EB8600400008445860587A401C5872C1
:102C6000002C01DB601C18721846FFF7E3FD1968A1
:102C700088422DD95E601C72587A401E5872012518
:102C800026E0012524E000220A2902D00B290FD0DA
:102C90001EE0987A50B193F90800002818DA1A72E9
:102CA0005868A8B9587A401C587211E001250FE005
:102CB00093F9080070B159680A22B1FBF2F159602A
:102CC000597A29B1491E5972002801DD401E187237
:102CD000284670BDFF20187258680028F8D15A7233
:102CE000F6E710B58278D10745D08188C38899422C
:102CF0000CD3930702D522F001028270027842F0D1
:102D0000010242F002020270002205E0027822F085
:102D1000010202704A1C92B2037823F0080323F0E8
:102D2000100303700489A14207D143F0080343F064
:102D3000100383F02003037003E002D943F0100373
:102D40000370037823F0400323F080030370448969
:102D5000A1420BD143F0400141F080010170437862
:102D60004FF0010121EA0301417003E002D943F071
:102D700080010170828010BD10B50520FEF7E2F9D8
:102D80000121062000F0F4FF0A20FEF7DBF9FFF72F
:102D900063FD04460021062000F0EAFF0520FEF74F
:102DA000D1F9204610BD00224260FF230372427217
:102DB0008172704718B504462068002800DA404246
:102DC0000090684600F009F82068002802DA0098B0
:102DD000404200E00098206018BD10B5012202E0DA
:102DE00002EB820252000B00A1F10101C9B2F7D13E
:102DF00002EB82014B000168B1FBF3F403FB1414F6
:102E000002EB8202A24201D8194401600168091B49
:102E1000016010BD2DE9FF5FFE4E3478FFF7A0FC86
:102E200030780225DFF8F093FC4F0DF104084FF0E5
:102E3000FF3B4FF0010A0A2879D2DFE800F005478E
:102E400089C1F4F3F2F1F0EF707830B1FFF772FC62
:102E5000F3A202210020FEF776FEDFF8DC93B9F83A
:102E6000000048B97868010402D5A9F800B003E071
:102E7000C00301D5A9F800A0B9F8000048B1FEF7D9
:102E8000F7FCB9F900100844FEF778FEB8B1052048
:102E9000B071FEF7EDFC01230A2201A9CDF800B0C4
:102EA000FFF766FD022308F1070219461220FEF71C
:102EB00006FE7868410304D50124B5710CE30420B3
:102EC000E6E78004FAD50124B57105E3707830B1E6
:102ED000FFF730FCD9A202210020FEF734FEDFF814
:102EE0005883B8F8000048B97868010402D5A8F8FA
:102EF00000B003E0C00301D5A8F800A0B8F80000B6
:102F000060B1FFF775F9B8F900100844002801DD39
:102F1000012000E00020FFF72FFAB571FFF768F9F4
:102F200030B1C8A202210F20FEF70DFE05E0BDE280
:102F3000C6A202210F20FEF706FE7868410302D5E3
:102F40000224B571C8E28004B8D50224B571C3E289
:102F5000707830B1FFF7EEFBBEA202210020FEF731
:102F6000F2FDB549088848B97868020402D5A1F88D
:102F700000B003E0C00301D5A1F800A0B1F9000042
:102F8000B94920B10AEBE07081F85200B57191F8AF
:102F9000520050B1B5A203210B20FEF7D4FD786892
:102FA000410308D50324B57196E2B2A203210B2098
:102FB000FEF7C9FDF3E7800487D50324B5718BE2E2
:102FC0007078F0B1FFF794FBACA201210020FEF76E
:102FD000BAFDAEA202210020FEF7B5FDAAA2032190
:102FE0001220FEF7B0FD4FF47A60FDF7F7FE0120E6
:102FF000FDF78CFE4CF2503303220021864800F08E
:10300000F5FE707930B131798348FFF70FFE58B182
:103010000320B07199F809304BB907E0F4E1A3E15E
:103020008AE1D4E083E029E00220F2E7012399F964
:10303000080000900A2201A9D9F80400FFF798FCC3
:10304000072308F1020203210B20FEF738FD786800
:1030500041030ED57048FFF7EDFB044621460120E1
:10306000FDF7FEFD21460120FDF766FA0424B57147
:1030700032E2800498D50424B5712DE27078D8B17D
:10308000FFF736FB87A201210020FEF75CFD7FA23F
:1030900002210020FEF757FD7BA203211220FEF73C
:1030A00052FD44F62060FDF799FE4CF250330322A6
:1030B0000021594800F09AFE707930B131795648B4
:1030C000FFF7B4FD28B10320B07199F809301BB99E
:1030D00001E00220F8E7012399F9080000900A2294
:1030E00001A9D9F80400FFF743FC072308F1020205
:1030F00003210B20FEF7E3FC7868410312D5464814
:10310000FFF798FB044621460220FDF7A9FDFDF7D5
:1031100045FC21460220FDF70FFAFDF701FA0524D0
:10312000B571D9E18004A3D50524B571D4E17078D7
:10313000D8B1FFF7DDFA5FA201210020FEF703FD01
:1031400052A202210020FEF7FEFC5DA20321122004
:10315000FEF7F9FC4FF47A60FDF740FE4CF2503375
:10316000032200212C4800F041FE707930B1317902
:103170002948FFF75BFD28B10320B07199F80930A9
:103180001BB901E00220F8E7012399F9080000903B
:103190000A2201A9D9F80400FFF7EAFB072308F186
:1031A000020203210B20FEF78AFC7868410309D54F
:1031B0001948FFF73FFB01460120FDF7CDF9062432
:1031C000B57189E18004ACD50624B57184E17078CD
:1031D000D8B1FFF78DFA3BA201210020FEF7B3FC26
:1031E0002AA202210020FEF7AEFC35A20321122004
:1031F000FEF7A9FC44F62060FDF7F0FD4CF25033D9
:1032000003220021044800F0F1FD707900B161E073
:1032100067E0000088030020C81000200C08002090
:10322000CAEEEDF2F0E0F1F22028302D3230293AEA
:1032300020202020000000005C030020C7E2F3EA09
:103240003A20000020E2EAEB00000000E2FBEAEB9B
:1032500000000000C2EAEBFEF7E5EDE8E520E2FB46
:10326000F5EEE4E03A000000FC100020F0E5E6E8AE
:10327000EC203200F0E5E6E8EC203100CAE0EBE8B3
:10328000E1F0EEE2EAE02034ECC00000C8E7ECE553
:10329000F0E5EDEDEEE520E7EDE0F7E5EDE8E53A08
:1032A00000000000CAE0EBE8E1F0EEE2EAE02032E4
:1032B00030ECC000CAE0EBE8E1F0EEE2EAE02034F6
:1032C000C2000000CAE0EBE8E1F0EEE2EAE0203202
:1032D00030C2000031798648FFF7A8FC28B10320EE
:1032E000B07199F809301BB901E00220F8E7012319
:1032F00099F9080000900A2201A9D9F80400FFF703
:1033000037FB072308F1020203210B20FEF7D7FB4E
:10331000786841030BD57648FFF78CFA0146022006
:10332000FDF71AF9FDF702F90724B571D4E080041E
:10333000FCD50724B571CFE0707830B1FFF7EAF91A
:103340006CA201210020FEF7FEFB7868410306D540
:1033500000210120FEF760F90824B571BCE080046B
:10336000E4D50824B571B7E07078D8B1FFF7D2F989
:1033700064A201210020FEF7E6FBAFF2F002022179
:103380000020FEF7E0FB5EA203211220FEF7DBFB2C
:1033900044F62060FDF722FD5E4B032200215448D5
:1033A00000F024FD707930B131795148FFF73EFCCF
:1033B00028B10320B07199F809301BB901E002204F
:1033C000F8E7012399F9080000900A2201A9D9F829
:1033D0000400FFF7CDFA072308F1020203210B20B6
:1033E000FEF76DFB7868410309D54148FFF722FAE3
:1033F00001460220FEF710F90924B5716CE0800443
:103400006AD50924B57167E07078D8B1FFF782F901
:1034100041A201210020FEF796FBAFF2901202219B
:103420000020FEF790FB36A203211220FEF78BFB53
:1034300044F62060FDF7D2FC364B032200212C48D5
:1034400000F0D4FC707930B131792948FFF7EEFBF8
:1034500028B10320B07199F809301BB901E00220AE
:10346000F8E7012399F9080000900A2201A9D9F888
:103470000400FFF77DFA072308F1020203210B2065
:10348000FEF71DFB786841030BD51948FFF7D2F909
:1034900001460320FEF7C0F8FEF728F80A24B571AC
:1034A0001AE0800418D50A24B57115E0707898B137
:1034B000FEF7DAF900211DA20846FEF744FB20A220
:1034C00001210020FEF73FFB21A203210020FEF78F
:1034D0003AFB0020FDF71AFC3078844204D03470A7
:1034E00086F801A0BDE8FF9F00207070FAE7000099
:1034F000C8100020CAE0EBE8E1F0EEE2EAE020309C
:10350000ECC00000CAE0EBE8E1F0EEE2EAE02034D3
:1035100030ECC00040420F00CAE0EBE8E1F0EEE220
:10352000EAE020343030ECC000000000CAE0EBE8F4
:10353000E1F0EEE2EAE020EFF0E8E1EEF0E000009A
:103540002020202020E7E0E2E5F0F8E5EDE02E0085
:10355000CFE5F0E5E7E0EFF3F1F2E8F2E520EFF098
:10356000E8E1EEF0000000002DE9F04F85B0F94EE3
:103570003478FFF7F5F830780027DFF8DCB34FF048
:10358000090A0DF104084FF00109022520B10128B4
:103590007ED002287DD1F5E27078002818D0FEF7A1
:1035A00063F90021EDA20846FEF7CDFAF1A2012150
:1035B0000020FEF7C8FAF5A202210020FEF7C3FAA8
:1035C000F8A203210020FEF7BEFA0020FDF784FBDD
:1035D000F078B0B9DBF80400410308D5FDF756FADE
:1035E00078B90120FDF792FB86F806A009E0800477
:1035F00007D5FDF74BFA20B10020FDF787FB0A2025
:10360000B071DBF8040000030BD5FDF72DFA401C68
:10361000022800DD0120FDF7C9FBD8B30720B071F7
:10362000F770FDF721FA4FF0FF31009101230A22D4
:1036300001A9FFF79DF9012303AA00211320FEF73A
:103640003EFADFF878A3BAF8000070B1FDF72AFA65
:10365000BAF9001001EBC10202EB011100EB81008D
:10366000FDF7BCFBE0B10520B071F078D0B1DBF81C
:103670000400410331D5D248FFF7DCF86421484308
:103680000490FDF7ABFB8246CE4890F8520002E072
:103690009BE099E002E0012810D015E00620BEE78B
:1036A0000420E1E7707930B3F02301223179C44876
:1036B00000F09CFB86F80390B5711CE0FDF7E6F97D
:1036C00010B90120FDF722FBBAF1000F03D007204B
:1036D000B071F7700FE00620FAE7800402D5F770AA
:1036E000B57108E0707930B13179B548FFF79EFACD
:1036F00038B10320B071F07828B1B1494B7AABB939
:1037000013E00220F6E7FDF7CDF9049003210091C4
:1037100004230A2201A9FFF72BF9052308F102026D
:1037200001210D20FEF7CBF918E0012391F90800E3
:10373000009048680A2201A9FFF71AF9707A38B197
:10374000042308F1050201210E20FEF7B8F905E077
:1037500004239D4A01210E20FEF7B1F9FCF71EFE5D
:103760000490012104A8FFF738FB4FF0030A04235B
:103770000A2201A9CDF800A00498FFF7F9F8042364
:1037800008F1030202210E20FEF799F9FCF70CFE66
:103790000490012104A8FFF720FB04230A2201A9B9
:1037A000CDF800A00498FFF7E3F8042308F1030222
:1037B00002210720FEF783F9FEF74FFF9BF8040074
:1037C000000701D50124B57198E27078C0B1FEF709
:1037D0004BF800217DA20846FEF7B5F97DA2012134
:1037E0000020FEF7B0F981A202210020FEF7ABF91C
:1037F0006CA203210020FEF7A6F90120FDF76CFA68
:10380000F078B0B9DBF80400410308D5FDF73EF9C4
:1038100078B90120FDF77AFA86F806A009E080045D
:1038200007D5FDF733F920B10020FDF76FFA0A2024
:10383000B0719BF80000000723D5DBF804004FF0BF
:10384000060A010405D50020FDF730FB86F806A026
:1038500016E0C10305D50120FDF728FB86F806A078
:103860000EE0810305D50220FDF720FB86F806A0B7
:1038700006E0400504D50320FDF718FB86F806A0F6
:103880007771FDF729F930B101280AD002280ED04E
:10389000032817D111E05BA200210A20FEF753F99B
:1038A00010E05BA200210A20FEF74DF90AE05BA2BE
:1038B00000210A20FEF747F904E05BA200210A205C
:1038C000FEF741F9DFF8F4A0BAF8000018B3FDF7ED
:1038D000E3F8584A904211DBBAF9001001EB4103BA
:1038E000C3EBC11100EBC10090420FDD4FF47A71C0
:1038F00090FBF1F201FB1201401A07E0BAF9001047
:1039000001EBC10202EB011100EB8100FDF73CFA73
:10391000F0B10520B071FDF7BFF8049003210091CC
:1039200004230A2201A9FFF723F805230DF106025B
:1039300001210E20FEF7C3F8DBF80400000308D5D0
:10394000FDF744F91F4890F85200012877D07CE039
:1039500073E07BE0880300200C080020CFEEF1F23A
:103960002E20F2EEEA2E20CFF0EEF4E8EBFC202041
:1039700000000000D3F1F22E20F2EEEA3A202020DF
:10398000202020202020ECC000000000C2FBF5EE2B
:10399000E43A202020202042202020202020ECC0BB
:1039A00000000000C0ECEFE5F0ECE5F2F03A20207A
:1039B000202020202020ECC0000000005C0300201C
:1039C000C8100020FC100020BE3E0008D1E8E3ED46
:1039D000E0EB3A00CFE5F0E8EEE43A2020202020AA
:1039E00020202020202020F100000000D6E8EAEB73
:1039F000EEE23A202020202020202F20202020200E
:103A00000000000020202020ECE5E0EDE4F00000C4
:103A1000202020202020EFE8EBE0000020EEE1F065
:103A20002E20EFE8EBE000002020F2F0E5F3E3EEDB
:103A3000EB2E0000A086010001E004206AE7FDF7FC
:103A400025F810B90120FDF761F9B571F07880B162
:103A5000DBF80400410327D5AE48FEF7EBFE0490E7
:103A6000FDF7F8F98046AC4890F8520001280CD0D8
:103A700011E0707930B3A94B00223179A54800F0EC
:103A8000B5F986F80390B5711CE0FCF7FFFF10B99B
:103A90000120FDF73BF9B8F1000F03D00720B0710A
:103AA000F7700FE00620FAE7800402D5F770B571D1
:103AB00008E0707930B131799648FFF7B7F8D8B19E
:103AC0000320B071FCF7D6FF04904FF0FF3A0123BA
:103AD0000A2201A9CDF800A0FEF74AFF05230DF147
:103AE000040802AA02210920FDF7E9FFF07828B1B5
:103AF0008848437AABB913E00220E2E7FCF7E6FF1F
:103B0000049001230A2201A9CDF800A0FEF730FF9E
:103B1000052308F1040202210F20FDF7D0FF17E072
:103B20000123CDF800A040680A2201A9FEF720FF7A
:103B3000707A38B1052308F1040202210F20FDF745
:103B4000BEFF05E00523764A02210F20FDF7B7FFEF
:103B5000FEF783FDDBF80400C10502D50024B57132
:103B6000CCE09BF80010090704D5810603D5022498
:103B7000B770B571C2E0400603D5022486F8029002
:103B8000B571BBE0707868B1FDF76EFE002165A2EB
:103B90000846FDF7D8FFB078B8B367A2022100202D
:103BA000FDF7D1FFDFF8A8A1BAF8000090B1B07816
:103BB00060B3FCF77FFFBAF9001001EBC10202EB22
:103BC000011100EB8100B17851B3FDF71FF950B33B
:103BD0000520B071F07840B3DBF80400410335D51F
:103BE0004C48FEF727FE642148430490B17841B366
:103BF000FDF70CF940B30720B071F770DBF8040053
:103C000020F48020CBF8040032E000E005E051A26F
:103C100002210020FDF797FFC4E7FCF751FFCAE738
:103C2000FDF706F9D3E70420D3E7707900B3F0235A
:103C300001223179374800F0D9F886F80390B57140
:103C400016E0FDF7F5F8D5E70620D5E7810406D59F
:103C5000B571F77020F40050CBF8040008E07079DB
:103C600030B131792B48FEF7E1FF38B10320B07154
:103C7000F07828B12748437AE3B91AE00220F6E742
:103C8000B07890B1FCF716FF049003200090042355
:103C90000A2201A90498FEF76BFE052308F102022F
:103CA00002210D20FDF70BFF1CE0FCF709FF04903B
:103CB000EBE7012390F90810009140680A2201A95E
:103CC000FEF756FE707A38B1042308F1050202218E
:103CD0000E20FDF7F4FE05E00423114A02210E2018
:103CE000FDF7EDFEDBF80400C10502D50024B57137
:103CF00004E01E49084201D00124B57130788442A5
:103D000006D0347086F80190F77005B0BDE8F08FEA
:103D10007770FAE7C8100020FC1000209F86010091
:103D2000BE3E0008C0ECEFEBE8F2F3E4E020F1E87F
:103D3000E3EDE0EBE03A0000CCE0EAF1E8ECF3EC94
:103D40003A202020202020202020ECC0000000006D
:103D50005C030020CCE8EDE8ECF3EC3A20202020D6
:103D6000202020202020ECC00000000008200400BB
:103D70000122064B8240002903D0186810431860C6
:103D800070471868904318607047000000800A4030
:103D9000044A116821F00F0100F00F000843106081
:103DA0007047000000800A400649012804D0486896
:103DB00020F00F0048607047486840F00F004860EE
:103DC0007047000000800A400449002803D088683A
:103DD000C008086170470020086170470000084073
:103DE00001498860704700000000084070B50E4629
:103DF000044611461D462046FEF7D5FF2560314694
:103E00002046BDE87040FEF711BF10B50346002004
:103E10001C688C4202DA1960012010BD9442FCDD5E
:103E20001A60022010BD10B5034600201C688C42A9
:103E300002D21960012010BD9442FCD91A60022000
:103E400010BD70B506460D460020FFF7ADFF0121FD
:103E50000520FFF78DFF00210420FFF789FFFEF703
:103E60008BFF0446FEF788FF2007F8D40120FFF7F8
:103E70009BFF00210520FFF77BFF31460420FFF761
:103E800077FF280900F005F82846BDE87040AFF339
:103E9000008010B5FFF77CFF0520FDF753F90121E5
:103EA0000620FFF765FF0A20FDF74CF900210620E8
:103EB000FFF75EFFBDE810400520FDF743B9202065
:103EC0002020202020202020000000000000D0071B
:103ED000160000000000E803140000000000D007F6
:103EE000140000000000E803F40100000000E803F3
:103EF0002800000028005903280000000000D00717
:103F0000280000002800D007280000002800D00763
:103F10002800000000000000483F000800000020CA
:103F20001C030000FC000008644200081C03002081
:103F300094000000FC000008F8420008B0030020D4
:103F4000081400001801000808B5009002E000986D
:103F5000401E009000980028F9D108BD9F4A9E4B52
:103F60001361136803F038035B1C012914D000218E
:103F700019431160506041F4E0731360D368D36853
:103F8000D368D36801F03801116000211161800706
:103F9000C00EC340D8B270474FF40071E8E78F4AB3
:103FA0008D4B1361136803F038035B1C012915D096
:103FB000002119431160506041F4E0731360D3682D
:103FC000D368D368D36801F0380111600021116112
:103FD00000F00200C000C34098B270474FF4007177
:103FE000E7E77E4A7C4B1361136803F038035B1CE0
:103FF000012910D0002119431160506041F4E07094
:104000001060D068D068D068D06801F038011160C5
:104010000021116170474FF40071ECE72DE9F04782
:1040200080466E4E6C483061306800F03800401CAD
:1040300001292BD00024044334600025002749F6D1
:10404000404908EB05007060B76044F48864346050
:104050000520FFF779FF44F4005434604846FFF729
:1040600073FF24F4806434600520FFF76DFF24F4AF
:10407000015434600120FFF767FF2D1D102DE0D3A0
:1040800004F0380030603761BDE8F0874FF4007409
:10409000D1E72DE9F041514E4F493161316801F0CE
:1040A0003801491C022829D000240C433460002523
:1040B000002749F640487560B76044F444643460B2
:1040C0000520FFF741FF44F4005434604046FFF7F9
:1040D0003BFF24F4806434606420FFF735FF24F450
:1040E000215434600120FFF72FFF2D1D102DE2D346
:1040F00004F0380030603761BDE8F0814FF400749F
:10410000D3E770B5354C344B2361012930D0002101
:10411000236803F038030B4343F001012160606022
:10412000A26041F4825525600520FFF70DFF45F49C
:10413000005525600A20FFF707FF45F08005256040
:104140002820FFF701FF25F08000206020F4805533
:1041500025600520FFF7F8FE25F4015525600120B4
:10416000FFF7F2FE05F0380020600020206170BDEE
:104170004FF40071CCE72DE9F04106460F46B00739
:10418000C00E02FA00F5FF24844039463046FFF79E
:1041900028FFA043254040EA050239463046BDE8E5
:1041A000F041AEE72DE9F04106460F4606F0020069
:1041B000C00002FA00F54FF6FF74844039463046DD
:1041C000FFF70FFFA043254040EA0502394630467D
:1041D000BDE8F04195E700005155AA8A00800140F2
:1041E00008B5009002E00098401E0090009800285A
:1041F000F9D108BD70B51A4C184B2361236803F040
:1042000038035B1C012925D000211943216092004D
:10421000104460600026A66041F488652560052092
:10422000FFF7DEFF45F40055256049F64040FFF7F3
:10423000D7FF25F4806525600520FFF7D1FF25F421
:10424000015525600120FFF7CBFF05F03800206005
:10425000266170BD4FF40071D7E700005155AA8A5E
:104260000080014000127A000000000000800A4037
:104270000700000000000B400A00000000000B4097
:104280000900000000000B400800000000000B4087
:104290000700000000000000000000000000000017
:1042A000000000000000000000000000000000000E
:1042B00000000000000000000000000000000000FE
:1042C00000000000000000000000000000000000EE
:1042D00000000000000000000000000000000000DE
:1042E00000000000000000000000000000000000CE
:0842F0000000000000000000C6
:04000005080000C12E
:00000001FF
